{
  "contractName": "AbstractAmbix",
  "abi": [
    {
      "anonymous": false,
      "inputs": [
        {
          "indexed": true,
          "internalType": "address",
          "name": "previousOwner",
          "type": "address"
        },
        {
          "indexed": true,
          "internalType": "address",
          "name": "newOwner",
          "type": "address"
        }
      ],
      "name": "OwnershipTransferred",
      "type": "event"
    },
    {
      "constant": true,
      "inputs": [
        {
          "internalType": "uint256",
          "name": "",
          "type": "uint256"
        },
        {
          "internalType": "uint256",
          "name": "",
          "type": "uint256"
        }
      ],
      "name": "A",
      "outputs": [
        {
          "internalType": "address",
          "name": "",
          "type": "address"
        }
      ],
      "payable": false,
      "stateMutability": "view",
      "type": "function"
    },
    {
      "constant": true,
      "inputs": [
        {
          "internalType": "uint256",
          "name": "",
          "type": "uint256"
        }
      ],
      "name": "B",
      "outputs": [
        {
          "internalType": "address",
          "name": "",
          "type": "address"
        }
      ],
      "payable": false,
      "stateMutability": "view",
      "type": "function"
    },
    {
      "constant": true,
      "inputs": [
        {
          "internalType": "uint256",
          "name": "",
          "type": "uint256"
        }
      ],
      "name": "M",
      "outputs": [
        {
          "internalType": "uint256",
          "name": "",
          "type": "uint256"
        }
      ],
      "payable": false,
      "stateMutability": "view",
      "type": "function"
    },
    {
      "constant": true,
      "inputs": [
        {
          "internalType": "uint256",
          "name": "",
          "type": "uint256"
        },
        {
          "internalType": "uint256",
          "name": "",
          "type": "uint256"
        }
      ],
      "name": "N",
      "outputs": [
        {
          "internalType": "uint256",
          "name": "",
          "type": "uint256"
        }
      ],
      "payable": false,
      "stateMutability": "view",
      "type": "function"
    },
    {
      "constant": true,
      "inputs": [],
      "name": "isOwner",
      "outputs": [
        {
          "internalType": "bool",
          "name": "",
          "type": "bool"
        }
      ],
      "payable": false,
      "stateMutability": "view",
      "type": "function"
    },
    {
      "constant": true,
      "inputs": [],
      "name": "owner",
      "outputs": [
        {
          "internalType": "address",
          "name": "",
          "type": "address"
        }
      ],
      "payable": false,
      "stateMutability": "view",
      "type": "function"
    },
    {
      "constant": false,
      "inputs": [],
      "name": "renounceOwnership",
      "outputs": [],
      "payable": false,
      "stateMutability": "nonpayable",
      "type": "function"
    },
    {
      "constant": false,
      "inputs": [
        {
          "internalType": "address",
          "name": "newOwner",
          "type": "address"
        }
      ],
      "name": "transferOwnership",
      "outputs": [],
      "payable": false,
      "stateMutability": "nonpayable",
      "type": "function"
    },
    {
      "constant": false,
      "inputs": [
        {
          "internalType": "address[]",
          "name": "_a",
          "type": "address[]"
        },
        {
          "internalType": "uint256[]",
          "name": "_n",
          "type": "uint256[]"
        }
      ],
      "name": "appendSource",
      "outputs": [],
      "payable": false,
      "stateMutability": "nonpayable",
      "type": "function"
    },
    {
      "constant": false,
      "inputs": [
        {
          "internalType": "address[]",
          "name": "_b",
          "type": "address[]"
        },
        {
          "internalType": "uint256[]",
          "name": "_m",
          "type": "uint256[]"
        }
      ],
      "name": "setSink",
      "outputs": [],
      "payable": false,
      "stateMutability": "nonpayable",
      "type": "function"
    }
  ],
  "bytecode": "0x6080604052336000806101000a81548173ffffffffffffffffffffffffffffffffffffffff021916908373ffffffffffffffffffffffffffffffffffffffff1602179055506000809054906101000a900473ffffffffffffffffffffffffffffffffffffffff1673ffffffffffffffffffffffffffffffffffffffff16600073ffffffffffffffffffffffffffffffffffffffff167f8be0079c531659141344cd1fd0a4f28419497f9722a3daafe3b4186f6b6457e060405160405180910390a3610bc9806100cf6000396000f3fe608060405234801561001057600080fd5b506004361061009e5760003560e01c80638f32d59b116100665780638f32d59b1461030b578063d6c855291461032d578063dac0eb071461036f578063f2fde38b146103dd578063fdbacf5a146104215761009e565b80634898722d146100a357806355c0a5f414610171578063715018a61461023f57806383f86eb2146102495780638da5cb5b146102c1575b600080fd5b61016f600480360360408110156100b957600080fd5b81019080803590602001906401000000008111156100d657600080fd5b8201836020820111156100e857600080fd5b8035906020019184602083028401116401000000008311171561010a57600080fd5b90919293919293908035906020019064010000000081111561012b57600080fd5b82018360208201111561013d57600080fd5b8035906020019184602083028401116401000000008311171561015f57600080fd5b909192939192939050505061046d565b005b61023d6004803603604081101561018757600080fd5b81019080803590602001906401000000008111156101a457600080fd5b8201836020820111156101b657600080fd5b803590602001918460208302840111640100000000831117156101d857600080fd5b9091929391929390803590602001906401000000008111156101f957600080fd5b82018360208201111561020b57600080fd5b8035906020019184602083028401116401000000008311171561022d57600080fd5b9091929391929390505050610539565b005b6102476106f2565b005b61027f6004803603604081101561025f57600080fd5b8101908080359060200190929190803590602001909291905050506107c2565b604051808273ffffffffffffffffffffffffffffffffffffffff1673ffffffffffffffffffffffffffffffffffffffff16815260200191505060405180910390f35b6102c9610816565b604051808273ffffffffffffffffffffffffffffffffffffffff1673ffffffffffffffffffffffffffffffffffffffff16815260200191505060405180910390f35b61031361083f565b604051808215151515815260200191505060405180910390f35b6103596004803603602081101561034357600080fd5b8101908080359060200190929190505050610896565b6040518082815260200191505060405180910390f35b61039b6004803603602081101561038557600080fd5b81019080803590602001909291905050506108b7565b604051808273ffffffffffffffffffffffffffffffffffffffff1673ffffffffffffffffffffffffffffffffffffffff16815260200191505060405180910390f35b61041f600480360360208110156103f357600080fd5b81019080803573ffffffffffffffffffffffffffffffffffffffff1690602001909291905050506108f3565b005b6104576004803603604081101561043757600080fd5b810190808035906020019092919080359060200190929190505050610910565b6040518082815260200191505060405180910390f35b61047561083f565b61047e57600080fd5b81819050848490501461049057600080fd5b60008090505b8484905081101561050e57600073ffffffffffffffffffffffffffffffffffffffff168585838181106104c557fe5b9050602002013573ffffffffffffffffffffffffffffffffffffffff1673ffffffffffffffffffffffffffffffffffffffff16141561050357600080fd5b806001019050610496565b50838360039190610520929190610a3f565b50818160049190610532929190610adf565b5050505050565b61054161083f565b61054a57600080fd5b600082829050858590501480156105645750600085859050115b61056d57600080fd5b600090505b848490508110156105ea57600073ffffffffffffffffffffffffffffffffffffffff168585838181106105a157fe5b9050602002013573ffffffffffffffffffffffffffffffffffffffff1673ffffffffffffffffffffffffffffffffffffffff1614156105df57600080fd5b806001019050610572565b600183839050148015610610575060008383600081811061060757fe5b90506020020135145b1561062c5760016003805490501461062757600080fd5b610667565b600090505b8282905081101561066657600083838381811061064a57fe5b905060200201351161065b57600080fd5b806001019050610631565b5b60018585909180600181540180825580915050906001820390600052602060002001600090919293909192939091929091925091906106a7929190610a3f565b505060028383909180600181540180825580915050906001820390600052602060002001600090919293909192939091929091925091906106e9929190610adf565b50505050505050565b6106fa61083f565b61070357600080fd5b600073ffffffffffffffffffffffffffffffffffffffff166000809054906101000a900473ffffffffffffffffffffffffffffffffffffffff1673ffffffffffffffffffffffffffffffffffffffff167f8be0079c531659141344cd1fd0a4f28419497f9722a3daafe3b4186f6b6457e060405160405180910390a360008060006101000a81548173ffffffffffffffffffffffffffffffffffffffff021916908373ffffffffffffffffffffffffffffffffffffffff160217905550565b600182815481106107cf57fe5b9060005260206000200181815481106107e457fe5b906000526020600020016000915091509054906101000a900473ffffffffffffffffffffffffffffffffffffffff1681565b60008060009054906101000a900473ffffffffffffffffffffffffffffffffffffffff16905090565b60008060009054906101000a900473ffffffffffffffffffffffffffffffffffffffff1673ffffffffffffffffffffffffffffffffffffffff163373ffffffffffffffffffffffffffffffffffffffff1614905090565b600481815481106108a357fe5b906000526020600020016000915090505481565b600381815481106108c457fe5b906000526020600020016000915054906101000a900473ffffffffffffffffffffffffffffffffffffffff1681565b6108fb61083f565b61090457600080fd5b61090d81610947565b50565b6002828154811061091d57fe5b90600052602060002001818154811061093257fe5b90600052602060002001600091509150505481565b600073ffffffffffffffffffffffffffffffffffffffff168173ffffffffffffffffffffffffffffffffffffffff16141561098157600080fd5b8073ffffffffffffffffffffffffffffffffffffffff166000809054906101000a900473ffffffffffffffffffffffffffffffffffffffff1673ffffffffffffffffffffffffffffffffffffffff167f8be0079c531659141344cd1fd0a4f28419497f9722a3daafe3b4186f6b6457e060405160405180910390a3806000806101000a81548173ffffffffffffffffffffffffffffffffffffffff021916908373ffffffffffffffffffffffffffffffffffffffff16021790555050565b828054828255906000526020600020908101928215610ace579160200282015b82811115610acd57823573ffffffffffffffffffffffffffffffffffffffff168260006101000a81548173ffffffffffffffffffffffffffffffffffffffff021916908373ffffffffffffffffffffffffffffffffffffffff16021790555091602001919060010190610a5f565b5b509050610adb9190610b2c565b5090565b828054828255906000526020600020908101928215610b1b579160200282015b82811115610b1a578235825591602001919060010190610aff565b5b509050610b289190610b6f565b5090565b610b6c91905b80821115610b6857600081816101000a81549073ffffffffffffffffffffffffffffffffffffffff021916905550600101610b32565b5090565b90565b610b9191905b80821115610b8d576000816000905550600101610b75565b5090565b9056fea265627a7a72315820e2f788696200a85c92c7d62b13d837efb9002f88d821b5a385a6dbda3ba0816c64736f6c63430005100032",
  "source": "pragma solidity ^0.5.0;\n\nimport 'openzeppelin-solidity/contracts/token/ERC20/ERC20Burnable.sol';\nimport 'openzeppelin-solidity/contracts/token/ERC20/SafeERC20.sol';\nimport 'openzeppelin-solidity/contracts/ownership/Ownable.sol';\n\n/**\n  @dev Ambix contract is used for morph Token set to another\n  Token's by rule (recipe). In distillation process given\n  Token's are burned and result generated by emission.\n  \n  The recipe presented as equation in form:\n  (N1 * A1 & N'1 * A'1 & N''1 * A''1 ...)\n  | (N2 * A2 & N'2 * A'2 & N''2 * A''2 ...) ...\n  | (Nn * An & N'n * A'n & N''n * A''n ...)\n  = M1 * B1 & M2 * B2 ... & Mm * Bm \n    where A, B - input and output tokens\n          N, M - token value coeficients\n          n, m - input / output dimetion size \n          | - is alternative operator (logical OR)\n          & - is associative operator (logical AND)\n  This says that `Ambix` should receive (approve) left\n  part of equation and send (transfer) right part.\n*/\ncontract AbstractAmbix is Ownable {\n    using SafeERC20 for ERC20Burnable;\n    using SafeERC20 for ERC20;\n\n    address[][] public A;\n    uint256[][] public N;\n    address[] public B;\n    uint256[] public M;\n\n    /**\n     * @dev Append token recipe source alternative\n     * @param _a Token recipe source token addresses\n     * @param _n Token recipe source token counts\n     **/\n    function appendSource(\n        address[] calldata _a,\n        uint256[] calldata _n\n    ) external onlyOwner {\n        uint256 i;\n\n        require(_a.length == _n.length && _a.length > 0);\n\n        for (i = 0; i < _a.length; ++i)\n            require(_a[i] != address(0));\n\n        if (_n.length == 1 && _n[0] == 0) {\n            require(B.length == 1);\n        } else {\n            for (i = 0; i < _n.length; ++i)\n                require(_n[i] > 0);\n        }\n\n        A.push(_a);\n        N.push(_n);\n    }\n\n    /**\n     * @dev Set sink of token recipe\n     * @param _b Token recipe sink token list\n     * @param _m Token recipe sink token counts\n     */\n    function setSink(\n        address[] calldata _b,\n        uint256[] calldata _m\n    ) external onlyOwner{\n        require(_b.length == _m.length);\n\n        for (uint256 i = 0; i < _b.length; ++i)\n            require(_b[i] != address(0));\n\n        B = _b;\n        M = _m;\n    }\n\n    function _run(uint256 _ix) internal {\n        require(_ix < A.length);\n        uint256 i;\n\n        if (N[_ix][0] > 0) {\n            // Static conversion\n\n            // Token count multiplier\n            uint256 mux = ERC20(A[_ix][0]).allowance(msg.sender, address(this)) / N[_ix][0];\n            require(mux > 0);\n\n            // Burning run\n            for (i = 0; i < A[_ix].length; ++i)\n                ERC20Burnable(A[_ix][i]).burnFrom(msg.sender, mux * N[_ix][i]);\n\n            // Transfer up\n            for (i = 0; i < B.length; ++i)\n                ERC20(B[i]).safeTransfer(msg.sender, M[i] * mux);\n\n        } else {\n            // Dynamic conversion\n            //   Let source token total supply is finite and decrease on each conversion,\n            //   just convert finite supply of source to tokens on balance of ambix.\n            //         dynamicRate = balance(sink) / total(source)\n\n            // Is available for single source and single sink only\n            require(A[_ix].length == 1 && B.length == 1);\n\n            ERC20Burnable source = ERC20Burnable(A[_ix][0]);\n            ERC20 sink = ERC20(B[0]);\n\n            uint256 scale = 10 ** 18 * sink.balanceOf(address(this)) / source.totalSupply();\n\n            uint256 allowance = source.allowance(msg.sender, address(this));\n            require(allowance > 0);\n            source.burnFrom(msg.sender, allowance);\n\n            uint256 reward = scale * allowance / 10 ** 18;\n            require(reward > 0);\n            sink.safeTransfer(msg.sender, reward);\n        }\n    }\n}\n",
  "sourcePath": "/home/tubleronchik/work/neon_robonomics_contracts/robonomics_contracts/contracts/misc/AbstractAmbix.sol",
  "compiler": {
    "name": "solc",
    "version": "0.5.16+commit.9c3226ce.Emscripten.clang"
  },
  "schemaVersion": "3.4.8",
  "updatedAt": "2022-07-05T11:40:14.223Z",
  "devdoc": {
    "details": "Ambix contract is used for morph Token set to another Token's by rule (recipe). In distillation process given Token's are burned and result generated by emission. The recipe presented as equation in form: (N1 * A1 & N'1 * A'1 & N''1 * A''1 ...) | (N2 * A2 & N'2 * A'2 & N''2 * A''2 ...) ... | (Nn * An & N'n * A'n & N''n * A''n ...) = M1 * B1 & M2 * B2 ... & Mm * Bm  where A, B - input and output tokens N, M - token value coeficients n, m - input / output dimetion size  | - is alternative operator (logical OR) & - is associative operator (logical AND) This says that `Ambix` should receive (approve) left part of equation and send (transfer) right part.",
    "methods": {
      "appendSource(address[],uint256[])": {
        "details": "Append token recipe source alternative",
        "params": {
          "_a": "Token recipe source token addresses",
          "_n": "Token recipe source token counts*"
        }
      },
      "isOwner()": {
        "return": "true if `msg.sender` is the owner of the contract."
      },
      "owner()": {
        "return": "the address of the owner."
      },
      "renounceOwnership()": {
        "details": "Allows the current owner to relinquish control of the contract."
      },
      "setSink(address[],uint256[])": {
        "details": "Set sink of token recipe",
        "params": {
          "_b": "Token recipe sink token list",
          "_m": "Token recipe sink token counts"
        }
      },
      "transferOwnership(address)": {
        "details": "Allows the current owner to transfer control of the contract to a newOwner.",
        "params": {
          "newOwner": "The address to transfer ownership to."
        }
      }
    }
  },
  "userdoc": {
    "methods": {
      "renounceOwnership()": {
        "notice": "Renouncing to ownership will leave the contract without an owner. It will not be possible to call the functions with the `onlyOwner` modifier anymore."
      }
    }
  }
}