{
  "contractName": "CancellationValidator",
  "abi": [
    {
      "inputs": [
        {
          "internalType": "uint256",
          "name": "_waitingPeriod",
          "type": "uint256"
        }
      ],
      "payable": false,
      "stateMutability": "nonpayable",
      "type": "constructor"
    },
    {
      "anonymous": false,
      "inputs": [
        {
          "indexed": true,
          "internalType": "address",
          "name": "liability",
          "type": "address"
        }
      ],
      "name": "CancellationRequest",
      "type": "event"
    },
    {
      "constant": true,
      "inputs": [
        {
          "internalType": "address",
          "name": "",
          "type": "address"
        }
      ],
      "name": "cancellationRequest",
      "outputs": [
        {
          "internalType": "uint256",
          "name": "",
          "type": "uint256"
        }
      ],
      "payable": false,
      "stateMutability": "view",
      "type": "function"
    },
    {
      "constant": true,
      "inputs": [],
      "name": "waitingPeriod",
      "outputs": [
        {
          "internalType": "uint256",
          "name": "",
          "type": "uint256"
        }
      ],
      "payable": false,
      "stateMutability": "view",
      "type": "function"
    },
    {
      "constant": false,
      "inputs": [
        {
          "internalType": "address",
          "name": "_liability",
          "type": "address"
        }
      ],
      "name": "cancel",
      "outputs": [],
      "payable": false,
      "stateMutability": "nonpayable",
      "type": "function"
    },
    {
      "constant": false,
      "inputs": [
        {
          "internalType": "address",
          "name": "_validator",
          "type": "address"
        }
      ],
      "name": "isValidator",
      "outputs": [
        {
          "internalType": "bool",
          "name": "",
          "type": "bool"
        }
      ],
      "payable": false,
      "stateMutability": "nonpayable",
      "type": "function"
    }
  ],
  "bytecode": "0x608060405234801561001057600080fd5b5060405161048b38038061048b8339818101604052602081101561003357600080fd5b810190808051906020019092919050505080600181905550506104308061005b6000396000f3fe608060405234801561001057600080fd5b506004361061004c5760003560e01c80633a2ef9df1461005157806347484ac31461006f5780634c33fe94146100c7578063facd743b1461010b575b600080fd5b610059610167565b6040518082815260200191505060405180910390f35b6100b16004803603602081101561008557600080fd5b81019080803573ffffffffffffffffffffffffffffffffffffffff16906020019092919050505061016d565b6040518082815260200191505060405180910390f35b610109600480360360208110156100dd57600080fd5b81019080803573ffffffffffffffffffffffffffffffffffffffff169060200190929190505050610185565b005b61014d6004803603602081101561012157600080fd5b81019080803573ffffffffffffffffffffffffffffffffffffffff1690602001909291905050506102c6565b604051808215151515815260200191505060405180910390f35b60015481565b60006020528060005260406000206000915090505481565b3373ffffffffffffffffffffffffffffffffffffffff168173ffffffffffffffffffffffffffffffffffffffff1663474ce8726040518163ffffffff1660e01b815260040160206040518083038186803b1580156101e257600080fd5b505afa1580156101f6573d6000803e3d6000fd5b505050506040513d602081101561020c57600080fd5b810190808051906020019092919050505073ffffffffffffffffffffffffffffffffffffffff161461023d57600080fd5b436000808373ffffffffffffffffffffffffffffffffffffffff1673ffffffffffffffffffffffffffffffffffffffff168152602001908152602001600020819055508073ffffffffffffffffffffffffffffffffffffffff167fc6246cf1cf6f32378d2cb6c8d92a01a199beeb40cc3b2bf8df418ac0fbe47ef960405160405180910390a250565b6000806000803373ffffffffffffffffffffffffffffffffffffffff1673ffffffffffffffffffffffffffffffffffffffff1681526020019081526020016000205490506000808211801561031e5750600154824303115b905060003390508073ffffffffffffffffffffffffffffffffffffffff1663474ce8726040518163ffffffff1660e01b815260040160206040518083038186803b15801561036b57600080fd5b505afa15801561037f573d6000803e3d6000fd5b505050506040513d602081101561039557600080fd5b810190808051906020019092919050505073ffffffffffffffffffffffffffffffffffffffff168573ffffffffffffffffffffffffffffffffffffffff161480156103dd5750815b156103ee57600193505050506103f6565b600093505050505b91905056fea265627a7a723158202832387816c706504f9449dc17b05ad6c8545b2228b162d6d49f2a77d94506b064736f6c63430005100032",
  "source": "pragma solidity ^0.5.0;\n\nimport '../interface/IValidator.sol';\nimport '../interface/ILiability.sol';\n\n/**\n * @dev Autonomous validator that helps cancel liabilities when promisor was gone.\n */\ncontract CancellationValidator is IValidator {\n    event CancellationRequest(address indexed liability);\n\n    mapping(address => uint256) public cancellationRequest;\n    uint256 public waitingPeriod;\n\n    /**\n     * @param _waitingPeriod Waiting period in blocks\n     */\n    constructor(uint256 _waitingPeriod) public {\n        waitingPeriod = _waitingPeriod;\n    }\n\n    /**\n     * @dev Request to cancel liability\n     * @param _liability Contract address\n     * @notice For promisee only\n     */\n    function cancel(address _liability) external {\n        require(ILiability(_liability).promisee() == msg.sender);\n        cancellationRequest[_liability] = block.number;\n        emit CancellationRequest(_liability);\n    }\n\n    function isValidator(address _validator) external returns (bool) {\n        uint256 requestStartBlock = cancellationRequest[msg.sender];\n        bool waitingDone = requestStartBlock > 0\n                        && block.number - requestStartBlock > waitingPeriod;\n\n        ILiability liability = ILiability(msg.sender);\n        if (_validator == liability.promisee() && waitingDone) {\n            return true;\n        } else {\n            return false;\n        }\n    }\n}\n",
  "sourcePath": "/home/tubleronchik/work/neon_robonomics_contracts/robonomics_contracts/contracts/robonomics/validator/CancellationValidator.sol",
  "compiler": {
    "name": "solc",
    "version": "0.5.16+commit.9c3226ce.Emscripten.clang"
  },
  "schemaVersion": "3.4.8",
  "updatedAt": "2022-07-05T11:40:14.291Z",
  "devdoc": {
    "details": "Autonomous validator that helps cancel liabilities when promisor was gone.",
    "methods": {
      "cancel(address)": {
        "details": "Request to cancel liability",
        "params": {
          "_liability": "Contract address"
        }
      },
      "constructor": {
        "params": {
          "_waitingPeriod": "Waiting period in blocks"
        }
      }
    }
  },
  "userdoc": {
    "methods": {
      "cancel(address)": {
        "notice": "For promisee only"
      }
    }
  }
}