{
  "contractName": "DutchAuction",
  "abi": [
    {
      "inputs": [
        {
          "internalType": "address payable",
          "name": "_wallet",
          "type": "address"
        },
        {
          "internalType": "uint256",
          "name": "_maxTokenSold",
          "type": "uint256"
        },
        {
          "internalType": "uint256",
          "name": "_ceiling",
          "type": "uint256"
        },
        {
          "internalType": "uint256",
          "name": "_priceFactor",
          "type": "uint256"
        }
      ],
      "payable": false,
      "stateMutability": "nonpayable",
      "type": "constructor"
    },
    {
      "anonymous": false,
      "inputs": [
        {
          "indexed": true,
          "internalType": "address",
          "name": "sender",
          "type": "address"
        },
        {
          "indexed": false,
          "internalType": "uint256",
          "name": "amount",
          "type": "uint256"
        }
      ],
      "name": "BidSubmission",
      "type": "event"
    },
    {
      "anonymous": false,
      "inputs": [
        {
          "indexed": true,
          "internalType": "address",
          "name": "previousOwner",
          "type": "address"
        },
        {
          "indexed": true,
          "internalType": "address",
          "name": "newOwner",
          "type": "address"
        }
      ],
      "name": "OwnershipTransferred",
      "type": "event"
    },
    {
      "anonymous": false,
      "inputs": [
        {
          "indexed": true,
          "internalType": "address",
          "name": "account",
          "type": "address"
        }
      ],
      "name": "SignerAdded",
      "type": "event"
    },
    {
      "anonymous": false,
      "inputs": [
        {
          "indexed": true,
          "internalType": "address",
          "name": "account",
          "type": "address"
        }
      ],
      "name": "SignerRemoved",
      "type": "event"
    },
    {
      "constant": true,
      "inputs": [],
      "name": "WAITING_PERIOD",
      "outputs": [
        {
          "internalType": "uint256",
          "name": "",
          "type": "uint256"
        }
      ],
      "payable": false,
      "stateMutability": "view",
      "type": "function"
    },
    {
      "constant": false,
      "inputs": [
        {
          "internalType": "address",
          "name": "account",
          "type": "address"
        }
      ],
      "name": "addSigner",
      "outputs": [],
      "payable": false,
      "stateMutability": "nonpayable",
      "type": "function"
    },
    {
      "constant": true,
      "inputs": [],
      "name": "ambix",
      "outputs": [
        {
          "internalType": "address",
          "name": "",
          "type": "address"
        }
      ],
      "payable": false,
      "stateMutability": "view",
      "type": "function"
    },
    {
      "constant": true,
      "inputs": [
        {
          "internalType": "address",
          "name": "",
          "type": "address"
        }
      ],
      "name": "bids",
      "outputs": [
        {
          "internalType": "uint256",
          "name": "",
          "type": "uint256"
        }
      ],
      "payable": false,
      "stateMutability": "view",
      "type": "function"
    },
    {
      "constant": true,
      "inputs": [],
      "name": "ceiling",
      "outputs": [
        {
          "internalType": "uint256",
          "name": "",
          "type": "uint256"
        }
      ],
      "payable": false,
      "stateMutability": "view",
      "type": "function"
    },
    {
      "constant": true,
      "inputs": [],
      "name": "endTime",
      "outputs": [
        {
          "internalType": "uint256",
          "name": "",
          "type": "uint256"
        }
      ],
      "payable": false,
      "stateMutability": "view",
      "type": "function"
    },
    {
      "constant": true,
      "inputs": [],
      "name": "finalPrice",
      "outputs": [
        {
          "internalType": "uint256",
          "name": "",
          "type": "uint256"
        }
      ],
      "payable": false,
      "stateMutability": "view",
      "type": "function"
    },
    {
      "constant": true,
      "inputs": [],
      "name": "isOwner",
      "outputs": [
        {
          "internalType": "bool",
          "name": "",
          "type": "bool"
        }
      ],
      "payable": false,
      "stateMutability": "view",
      "type": "function"
    },
    {
      "constant": true,
      "inputs": [
        {
          "internalType": "address",
          "name": "account",
          "type": "address"
        }
      ],
      "name": "isSigner",
      "outputs": [
        {
          "internalType": "bool",
          "name": "",
          "type": "bool"
        }
      ],
      "payable": false,
      "stateMutability": "view",
      "type": "function"
    },
    {
      "constant": true,
      "inputs": [],
      "name": "maxTokenSold",
      "outputs": [
        {
          "internalType": "uint256",
          "name": "",
          "type": "uint256"
        }
      ],
      "payable": false,
      "stateMutability": "view",
      "type": "function"
    },
    {
      "constant": true,
      "inputs": [],
      "name": "owner",
      "outputs": [
        {
          "internalType": "address",
          "name": "",
          "type": "address"
        }
      ],
      "payable": false,
      "stateMutability": "view",
      "type": "function"
    },
    {
      "constant": true,
      "inputs": [],
      "name": "priceFactor",
      "outputs": [
        {
          "internalType": "uint256",
          "name": "",
          "type": "uint256"
        }
      ],
      "payable": false,
      "stateMutability": "view",
      "type": "function"
    },
    {
      "constant": false,
      "inputs": [],
      "name": "renounceOwnership",
      "outputs": [],
      "payable": false,
      "stateMutability": "nonpayable",
      "type": "function"
    },
    {
      "constant": false,
      "inputs": [],
      "name": "renounceSigner",
      "outputs": [],
      "payable": false,
      "stateMutability": "nonpayable",
      "type": "function"
    },
    {
      "constant": true,
      "inputs": [],
      "name": "stage",
      "outputs": [
        {
          "internalType": "enum DutchAuction.Stages",
          "name": "",
          "type": "uint8"
        }
      ],
      "payable": false,
      "stateMutability": "view",
      "type": "function"
    },
    {
      "constant": true,
      "inputs": [],
      "name": "startBlock",
      "outputs": [
        {
          "internalType": "uint256",
          "name": "",
          "type": "uint256"
        }
      ],
      "payable": false,
      "stateMutability": "view",
      "type": "function"
    },
    {
      "constant": true,
      "inputs": [],
      "name": "token",
      "outputs": [
        {
          "internalType": "contract ERC20Burnable",
          "name": "",
          "type": "address"
        }
      ],
      "payable": false,
      "stateMutability": "view",
      "type": "function"
    },
    {
      "constant": true,
      "inputs": [],
      "name": "totalReceived",
      "outputs": [
        {
          "internalType": "uint256",
          "name": "",
          "type": "uint256"
        }
      ],
      "payable": false,
      "stateMutability": "view",
      "type": "function"
    },
    {
      "constant": false,
      "inputs": [
        {
          "internalType": "address",
          "name": "newOwner",
          "type": "address"
        }
      ],
      "name": "transferOwnership",
      "outputs": [],
      "payable": false,
      "stateMutability": "nonpayable",
      "type": "function"
    },
    {
      "constant": true,
      "inputs": [],
      "name": "wallet",
      "outputs": [
        {
          "internalType": "address payable",
          "name": "",
          "type": "address"
        }
      ],
      "payable": false,
      "stateMutability": "view",
      "type": "function"
    },
    {
      "constant": false,
      "inputs": [
        {
          "internalType": "contract ERC20Burnable",
          "name": "_token",
          "type": "address"
        },
        {
          "internalType": "address",
          "name": "_ambix",
          "type": "address"
        }
      ],
      "name": "setup",
      "outputs": [],
      "payable": false,
      "stateMutability": "nonpayable",
      "type": "function"
    },
    {
      "constant": false,
      "inputs": [],
      "name": "startAuction",
      "outputs": [],
      "payable": false,
      "stateMutability": "nonpayable",
      "type": "function"
    },
    {
      "constant": false,
      "inputs": [],
      "name": "calcCurrentTokenPrice",
      "outputs": [
        {
          "internalType": "uint256",
          "name": "",
          "type": "uint256"
        }
      ],
      "payable": false,
      "stateMutability": "nonpayable",
      "type": "function"
    },
    {
      "constant": false,
      "inputs": [],
      "name": "updateStage",
      "outputs": [
        {
          "internalType": "enum DutchAuction.Stages",
          "name": "",
          "type": "uint8"
        }
      ],
      "payable": false,
      "stateMutability": "nonpayable",
      "type": "function"
    },
    {
      "constant": false,
      "inputs": [
        {
          "internalType": "bytes",
          "name": "signature",
          "type": "bytes"
        }
      ],
      "name": "bid",
      "outputs": [
        {
          "internalType": "uint256",
          "name": "amount",
          "type": "uint256"
        }
      ],
      "payable": true,
      "stateMutability": "payable",
      "type": "function"
    },
    {
      "constant": false,
      "inputs": [],
      "name": "claimTokens",
      "outputs": [],
      "payable": false,
      "stateMutability": "nonpayable",
      "type": "function"
    },
    {
      "constant": true,
      "inputs": [],
      "name": "calcStopPrice",
      "outputs": [
        {
          "internalType": "uint256",
          "name": "",
          "type": "uint256"
        }
      ],
      "payable": false,
      "stateMutability": "view",
      "type": "function"
    },
    {
      "constant": true,
      "inputs": [],
      "name": "calcTokenPrice",
      "outputs": [
        {
          "internalType": "uint256",
          "name": "",
          "type": "uint256"
        }
      ],
      "payable": false,
      "stateMutability": "view",
      "type": "function"
    }
  ],
  "bytecode": "0x60806040523480156200001157600080fd5b506040516200215b3803806200215b833981810160405260808110156200003757600080fd5b810190808051906020019092919080519060200190929190805190602001909291908051906020019092919050505062000077336200020f60201b60201c565b33600160006101000a81548173ffffffffffffffffffffffffffffffffffffffff021916908373ffffffffffffffffffffffffffffffffffffffff160217905550600160009054906101000a900473ffffffffffffffffffffffffffffffffffffffff1673ffffffffffffffffffffffffffffffffffffffff16600073ffffffffffffffffffffffffffffffffffffffff167f8be0079c531659141344cd1fd0a4f28419497f9722a3daafe3b4186f6b6457e060405160405180910390a3600073ffffffffffffffffffffffffffffffffffffffff168473ffffffffffffffffffffffffffffffffffffffff1614158015620001735750600082115b8015620001805750600081115b6200018a57600080fd5b83600460006101000a81548173ffffffffffffffffffffffffffffffffffffffff021916908373ffffffffffffffffffffffffffffffffffffffff1602179055508260058190555081600681905550806007819055506000600d60006101000a81548160ff021916908360048111156200020057fe5b021790555050505050620003b9565b6200022a8160006200027060201b62001b771790919060201c565b8073ffffffffffffffffffffffffffffffffffffffff167f47d1c22a25bb3a5d4e481b9b1e6944c2eade3181a0a20b495ed61d35b5323f2460405160405180910390a250565b600073ffffffffffffffffffffffffffffffffffffffff168173ffffffffffffffffffffffffffffffffffffffff161415620002ab57600080fd5b620002bd82826200032660201b60201c565b15620002c857600080fd5b60018260000160008373ffffffffffffffffffffffffffffffffffffffff1673ffffffffffffffffffffffffffffffffffffffff16815260200190815260200160002060006101000a81548160ff0219169083151502179055505050565b60008073ffffffffffffffffffffffffffffffffffffffff168273ffffffffffffffffffffffffffffffffffffffff1614156200036257600080fd5b8260000160008373ffffffffffffffffffffffffffffffffffffffff1673ffffffffffffffffffffffffffffffffffffffff16815260200190815260200160002060009054906101000a900460ff16905092915050565b611d9280620003c96000396000f3fe6080604052600436106101b75760003560e01c80638da5cb5b116100ec578063da8e0b781161008a578063e5c8b03d11610064578063e5c8b03d1461074c578063eb12d61e14610763578063f2fde38b146107b4578063fc0c546a14610805576101b7565b8063da8e0b78146106cb578063dd9dd688146106f6578063dfb2866d14610721576101b7565b8063a6b513ee116100c6578063a6b513ee14610603578063c040e6b81461062e578063c062f57814610667578063d9f8a4e2146106a0576101b7565b80638da5cb5b146105525780638f32d59b146105a9578063a3c2c462146105d8576101b7565b80635a5132be116101595780636f85c7e4116101335780636f85c7e41461047c578063715018a6146104a7578063753ed1bd146104be5780637df73e27146104e9576101b7565b80635a5132be146103a957806362ea82db146104005780636b64c76914610465576101b7565b806339f64b521161019557806339f64b52146102e557806348c54b9d1461031057806348cd4cb114610327578063521eb27314610352576101b7565b80632d34ba79146101bc5780633197cbb61461022d57806331e3753014610258575b600080fd5b3480156101c857600080fd5b5061022b600480360360408110156101df57600080fd5b81019080803573ffffffffffffffffffffffffffffffffffffffff169060200190929190803573ffffffffffffffffffffffffffffffffffffffff16906020019092919050505061085c565b005b34801561023957600080fd5b50610242610aa5565b6040518082815260200191505060405180910390f35b6102cf6004803603602081101561026e57600080fd5b810190808035906020019064010000000081111561028b57600080fd5b82018360208201111561029d57600080fd5b803590602001918460018302840111640100000000831117156102bf57600080fd5b9091929391929390505050610aab565b6040518082815260200191505060405180910390f35b3480156102f157600080fd5b506102fa610e0b565b6040518082815260200191505060405180910390f35b34801561031c57600080fd5b50610325610e33565b005b34801561033357600080fd5b5061033c61102b565b6040518082815260200191505060405180910390f35b34801561035e57600080fd5b50610367611031565b604051808273ffffffffffffffffffffffffffffffffffffffff1673ffffffffffffffffffffffffffffffffffffffff16815260200191505060405180910390f35b3480156103b557600080fd5b506103be611057565b604051808273ffffffffffffffffffffffffffffffffffffffff1673ffffffffffffffffffffffffffffffffffffffff16815260200191505060405180910390f35b34801561040c57600080fd5b5061044f6004803603602081101561042357600080fd5b81019080803573ffffffffffffffffffffffffffffffffffffffff16906020019092919050505061107d565b6040518082815260200191505060405180910390f35b34801561047157600080fd5b5061047a611095565b005b34801561048857600080fd5b50610491611107565b6040518082815260200191505060405180910390f35b3480156104b357600080fd5b506104bc61110c565b005b3480156104ca57600080fd5b506104d36111de565b6040518082815260200191505060405180910390f35b3480156104f557600080fd5b506105386004803603602081101561050c57600080fd5b81019080803573ffffffffffffffffffffffffffffffffffffffff1690602001909291905050506111e4565b604051808215151515815260200191505060405180910390f35b34801561055e57600080fd5b50610567611201565b604051808273ffffffffffffffffffffffffffffffffffffffff1673ffffffffffffffffffffffffffffffffffffffff16815260200191505060405180910390f35b3480156105b557600080fd5b506105be61122b565b604051808215151515815260200191505060405180910390f35b3480156105e457600080fd5b506105ed611283565b6040518082815260200191505060405180910390f35b34801561060f57600080fd5b50610618611289565b6040518082815260200191505060405180910390f35b34801561063a57600080fd5b5061064361128f565b6040518082600481111561065357fe5b60ff16815260200191505060405180910390f35b34801561067357600080fd5b5061067c6112a2565b6040518082600481111561068c57fe5b60ff16815260200191505060405180910390f35b3480156106ac57600080fd5b506106b561136d565b6040518082815260200191505060405180910390f35b3480156106d757600080fd5b506106e0611498565b6040518082815260200191505060405180910390f35b34801561070257600080fd5b5061070b61149e565b6040518082815260200191505060405180910390f35b34801561072d57600080fd5b506107366114bc565b6040518082815260200191505060405180910390f35b34801561075857600080fd5b506107616114c2565b005b34801561076f57600080fd5b506107b26004803603602081101561078657600080fd5b81019080803573ffffffffffffffffffffffffffffffffffffffff1690602001909291905050506114cd565b005b3480156107c057600080fd5b50610803600480360360208110156107d757600080fd5b81019080803573ffffffffffffffffffffffffffffffffffffffff1690602001909291905050506114eb565b005b34801561081157600080fd5b5061081a611508565b604051808273ffffffffffffffffffffffffffffffffffffffff1673ffffffffffffffffffffffffffffffffffffffff16815260200191505060405180910390f35b61086461122b565b61086d57600080fd5b600080600481111561087b57fe5b600d60009054906101000a900460ff16600481111561089657fe5b146108a057600080fd5b600073ffffffffffffffffffffffffffffffffffffffff168373ffffffffffffffffffffffffffffffffffffffff161415801561090a5750600073ffffffffffffffffffffffffffffffffffffffff168273ffffffffffffffffffffffffffffffffffffffff1614155b61091357600080fd5b82600260006101000a81548173ffffffffffffffffffffffffffffffffffffffff021916908373ffffffffffffffffffffffffffffffffffffffff16021790555081600360006101000a81548173ffffffffffffffffffffffffffffffffffffffff021916908373ffffffffffffffffffffffffffffffffffffffff160217905550600554600260009054906101000a900473ffffffffffffffffffffffffffffffffffffffff1673ffffffffffffffffffffffffffffffffffffffff166370a08231306040518263ffffffff1660e01b8152600401808273ffffffffffffffffffffffffffffffffffffffff1673ffffffffffffffffffffffffffffffffffffffff16815260200191505060206040518083038186803b158015610a3757600080fd5b505afa158015610a4b573d6000803e3d6000fd5b505050506040513d6020811015610a6157600080fd5b810190808051906020019092919050505014610a7c57600080fd5b6001600d60006101000a81548160ff02191690836004811115610a9b57fe5b0217905550505050565b60095481565b6000600460003690501480610ac4575060a46000369050145b610acd57600080fd5b60026004811115610ada57fe5b600d60009054906101000a900460ff166004811115610af557fe5b148015610b105750610b0561149e565b610b0d610e0b565b11155b15610b1e57610b1d61152e565b5b60036004811115610b2b57fe5b600d60009054906101000a900460ff166004811115610b4657fe5b148015610b57575060006009540142115b15610b81576004600d60006101000a81548160ff02191690836004811115610b7b57fe5b02179055505b6002806004811115610b8f57fe5b600d60009054906101000a900460ff166004811115610baa57fe5b14610bb457600080fd5b83838080601f016020809104026020016040519081016040528093929190818152602001838380828437600081840152601f19601f82011690508083019250505050505050610c0333826116b1565b610c0c57600080fd5b60003411610c1957600080fd5b34925060003390506000600a54633b9aca00610c33610e0b565b6005540281610c3e57fe5b040390506000600a5460065403905081811015610c59578091505b81861115610cae578195508273ffffffffffffffffffffffffffffffffffffffff166108fc8734039081150290604051600060405180830381858888f19350505050158015610cac573d6000803e3d6000fd5b505b6000600460009054906101000a900473ffffffffffffffffffffffffffffffffffffffff1673ffffffffffffffffffffffffffffffffffffffff168760405180600001905060006040518083038185875af1925050503d8060008114610d30576040519150601f19603f3d011682016040523d82523d6000602084013e610d35565b606091505b5050905080610d4357600080fd5b86600c60008673ffffffffffffffffffffffffffffffffffffffff1673ffffffffffffffffffffffffffffffffffffffff1681526020019081526020016000206000828254019250508190555086600a600082825401925050819055508373ffffffffffffffffffffffffffffffffffffffff167f9c89e828e6cee6374b68147c9e753e41746aad98ba255a527a4fc0ac1868bff9886040518082815260200191505060405180910390a282871415610dff57610dfe61152e565b5b50505050505092915050565b60006001611d4c600854430301670de0b6b3a76400006007540281610e2c57fe5b0401905090565b600460003690501480610e4a575060a46000369050145b610e5357600080fd5b60026004811115610e6057fe5b600d60009054906101000a900460ff166004811115610e7b57fe5b148015610e965750610e8b61149e565b610e93610e0b565b11155b15610ea457610ea361152e565b5b60036004811115610eb157fe5b600d60009054906101000a900460ff166004811115610ecc57fe5b148015610edd575060006009540142115b15610f07576004600d60006101000a81548160ff02191690836004811115610f0157fe5b02179055505b6004806004811115610f1557fe5b600d60009054906101000a900460ff166004811115610f3057fe5b14610f3a57600080fd5b60003390506000600b54633b9aca00600c60008573ffffffffffffffffffffffffffffffffffffffff1673ffffffffffffffffffffffffffffffffffffffff168152602001908152602001600020540281610f9157fe5b0490506000600c60008473ffffffffffffffffffffffffffffffffffffffff1673ffffffffffffffffffffffffffffffffffffffff168152602001908152602001600020819055506110268282600260009054906101000a900473ffffffffffffffffffffffffffffffffffffffff1673ffffffffffffffffffffffffffffffffffffffff166117519092919063ffffffff16565b505050565b60085481565b600460009054906101000a900473ffffffffffffffffffffffffffffffffffffffff1681565b600360009054906101000a900473ffffffffffffffffffffffffffffffffffffffff1681565b600c6020528060005260406000206000915090505481565b61109d61122b565b6110a657600080fd5b60018060048111156110b457fe5b600d60009054906101000a900460ff1660048111156110cf57fe5b146110d957600080fd5b6002600d60006101000a81548160ff021916908360048111156110f857fe5b02179055504360088190555050565b600081565b61111461122b565b61111d57600080fd5b600073ffffffffffffffffffffffffffffffffffffffff16600160009054906101000a900473ffffffffffffffffffffffffffffffffffffffff1673ffffffffffffffffffffffffffffffffffffffff167f8be0079c531659141344cd1fd0a4f28419497f9722a3daafe3b4186f6b6457e060405160405180910390a36000600160006101000a81548173ffffffffffffffffffffffffffffffffffffffff021916908373ffffffffffffffffffffffffffffffffffffffff160217905550565b60065481565b60006111fa82600061182190919063ffffffff16565b9050919050565b6000600160009054906101000a900473ffffffffffffffffffffffffffffffffffffffff16905090565b6000600160009054906101000a900473ffffffffffffffffffffffffffffffffffffffff1673ffffffffffffffffffffffffffffffffffffffff163373ffffffffffffffffffffffffffffffffffffffff1614905090565b600a5481565b600b5481565b600d60009054906101000a900460ff1681565b6000600260048111156112b157fe5b600d60009054906101000a900460ff1660048111156112cc57fe5b1480156112e757506112dc61149e565b6112e4610e0b565b11155b156112f5576112f461152e565b5b6003600481111561130257fe5b600d60009054906101000a900460ff16600481111561131d57fe5b14801561132e575060006009540142115b15611358576004600d60006101000a81548160ff0219169083600481111561135257fe5b02179055505b600d60009054906101000a900460ff16905090565b60006002600481111561137c57fe5b600d60009054906101000a900460ff16600481111561139757fe5b1480156113b257506113a761149e565b6113af610e0b565b11155b156113c0576113bf61152e565b5b600360048111156113cd57fe5b600d60009054906101000a900460ff1660048111156113e857fe5b1480156113f9575060006009540142115b15611423576004600d60006101000a81548160ff0219169083600481111561141d57fe5b02179055505b6003600481111561143057fe5b600d60009054906101000a900460ff16600481111561144b57fe5b148061147b575060048081111561145e57fe5b600d60009054906101000a900460ff16600481111561147957fe5b145b1561148a57600b549050611495565b611492610e0b565b90505b90565b60055481565b60006001600554633b9aca00600a5402816114b557fe5b0401905090565b60075481565b6114cb336118b3565b565b6114d6336111e4565b6114df57600080fd5b6114e88161190d565b50565b6114f361122b565b6114fc57600080fd5b61150581611967565b50565b600260009054906101000a900473ffffffffffffffffffffffffffffffffffffffff1681565b6003600d60006101000a81548160ff0219169083600481111561154d57fe5b0217905550600654600a541461156a5761156561149e565b611573565b611572610e0b565b5b600b819055506000600b54633b9aca00600a54028161158e57fe5b049050600654600a54141561161557611610600360009054906101000a900473ffffffffffffffffffffffffffffffffffffffff168260055403600260009054906101000a900473ffffffffffffffffffffffffffffffffffffffff1673ffffffffffffffffffffffffffffffffffffffff166117519092919063ffffffff16565b6116a7565b600260009054906101000a900473ffffffffffffffffffffffffffffffffffffffff1673ffffffffffffffffffffffffffffffffffffffff166342966c6882600554036040518263ffffffff1660e01b815260040180828152602001915050600060405180830381600087803b15801561168e57600080fd5b505af11580156116a2573d6000803e3d6000fd5b505050505b4260098190555050565b60006117493084604051602001808373ffffffffffffffffffffffffffffffffffffffff1673ffffffffffffffffffffffffffffffffffffffff1660601b81526014018273ffffffffffffffffffffffffffffffffffffffff1673ffffffffffffffffffffffffffffffffffffffff1660601b8152601401925050506040516020818303038152906040528051906020012083611a61565b905092915050565b8273ffffffffffffffffffffffffffffffffffffffff1663a9059cbb83836040518363ffffffff1660e01b8152600401808373ffffffffffffffffffffffffffffffffffffffff1673ffffffffffffffffffffffffffffffffffffffff16815260200182815260200192505050602060405180830381600087803b1580156117d857600080fd5b505af11580156117ec573d6000803e3d6000fd5b505050506040513d602081101561180257600080fd5b810190808051906020019092919050505061181c57600080fd5b505050565b60008073ffffffffffffffffffffffffffffffffffffffff168273ffffffffffffffffffffffffffffffffffffffff16141561185c57600080fd5b8260000160008373ffffffffffffffffffffffffffffffffffffffff1673ffffffffffffffffffffffffffffffffffffffff16815260200190815260200160002060009054906101000a900460ff16905092915050565b6118c7816000611acc90919063ffffffff16565b8073ffffffffffffffffffffffffffffffffffffffff167f3525e22824a8a7df2c9a6029941c824cf95b6447f1e13d5128fd3826d35afe8b60405160405180910390a250565b611921816000611b7790919063ffffffff16565b8073ffffffffffffffffffffffffffffffffffffffff167f47d1c22a25bb3a5d4e481b9b1e6944c2eade3181a0a20b495ed61d35b5323f2460405160405180910390a250565b600073ffffffffffffffffffffffffffffffffffffffff168173ffffffffffffffffffffffffffffffffffffffff1614156119a157600080fd5b8073ffffffffffffffffffffffffffffffffffffffff16600160009054906101000a900473ffffffffffffffffffffffffffffffffffffffff1673ffffffffffffffffffffffffffffffffffffffff167f8be0079c531659141344cd1fd0a4f28419497f9722a3daafe3b4186f6b6457e060405160405180910390a380600160006101000a81548173ffffffffffffffffffffffffffffffffffffffff021916908373ffffffffffffffffffffffffffffffffffffffff16021790555050565b600080611a7f83611a7186611c23565b611c7b90919063ffffffff16565b9050600073ffffffffffffffffffffffffffffffffffffffff168173ffffffffffffffffffffffffffffffffffffffff1614158015611ac35750611ac2816111e4565b5b91505092915050565b600073ffffffffffffffffffffffffffffffffffffffff168173ffffffffffffffffffffffffffffffffffffffff161415611b0657600080fd5b611b108282611821565b611b1957600080fd5b60008260000160008373ffffffffffffffffffffffffffffffffffffffff1673ffffffffffffffffffffffffffffffffffffffff16815260200190815260200160002060006101000a81548160ff0219169083151502179055505050565b600073ffffffffffffffffffffffffffffffffffffffff168173ffffffffffffffffffffffffffffffffffffffff161415611bb157600080fd5b611bbb8282611821565b15611bc557600080fd5b60018260000160008373ffffffffffffffffffffffffffffffffffffffff1673ffffffffffffffffffffffffffffffffffffffff16815260200190815260200160002060006101000a81548160ff0219169083151502179055505050565b60008160405160200180807f19457468657265756d205369676e6564204d6573736167653a0a333200000000815250601c01828152602001915050604051602081830303815290604052805190602001209050919050565b6000806000806041855114611c965760009350505050611d57565b6020850151925060408501519150606085015160001a9050601b8160ff161015611cc157601b810190505b601b8160ff1614158015611cd95750601c8160ff1614155b15611cea5760009350505050611d57565b60018682858560405160008152602001604052604051808581526020018460ff1660ff1681526020018381526020018281526020019450505050506020604051602081039080840390855afa158015611d47573d6000803e3d6000fd5b5050506020604051035193505050505b9291505056fea265627a7a72315820daa70bce1537d50626b05c7253924945e26e6245525d558d0acffdf77af015c164736f6c63430005100032",
  "source": "pragma solidity ^0.5.0;\n\nimport 'openzeppelin-solidity/contracts/drafts/SignatureBouncer.sol';\nimport 'openzeppelin-solidity/contracts/token/ERC20/ERC20Burnable.sol';\nimport 'openzeppelin-solidity/contracts/token/ERC20/SafeERC20.sol';\nimport 'openzeppelin-solidity/contracts/ownership/Ownable.sol';\n\n\n/// @title Dutch auction contract - distribution of XRT tokens using an auction.\n/// @author Stefan George - <stefan.george@consensys.net>\n/// @author Airalab - <research@aira.life> \ncontract DutchAuction is SignatureBouncer, Ownable {\n    using SafeERC20 for ERC20Burnable;\n\n    /*\n     *  Events\n     */\n    event BidSubmission(address indexed sender, uint256 amount);\n\n    /*\n     *  Constants\n     */\n    uint constant public WAITING_PERIOD = 0; // 1 days;\n\n    /*\n     *  Storage\n     */\n    ERC20Burnable public token;\n    address public ambix;\n    address payable public wallet;\n    uint public maxTokenSold;\n    uint public ceiling;\n    uint public priceFactor;\n    uint public startBlock;\n    uint public endTime;\n    uint public totalReceived;\n    uint public finalPrice;\n    mapping (address => uint) public bids;\n    Stages public stage;\n\n    /*\n     *  Enums\n     */\n    enum Stages {\n        AuctionDeployed,\n        AuctionSetUp,\n        AuctionStarted,\n        AuctionEnded,\n        TradingStarted\n    }\n\n    /*\n     *  Modifiers\n     */\n    modifier atStage(Stages _stage) {\n        // Contract on stage\n        require(stage == _stage);\n        _;\n    }\n\n    modifier isValidPayload() {\n        require(msg.data.length == 4 || msg.data.length == 164);\n        _;\n    }\n\n    modifier timedTransitions() {\n        if (stage == Stages.AuctionStarted && calcTokenPrice() <= calcStopPrice())\n            finalizeAuction();\n        if (stage == Stages.AuctionEnded && now > endTime + WAITING_PERIOD)\n            stage = Stages.TradingStarted;\n        _;\n    }\n\n    /*\n     *  Public functions\n     */\n    /// @dev Contract constructor function sets owner.\n    /// @param _wallet Multisig wallet.\n    /// @param _maxTokenSold Auction token balance.\n    /// @param _ceiling Auction ceiling.\n    /// @param _priceFactor Auction price factor.\n    constructor(address payable _wallet, uint _maxTokenSold, uint _ceiling, uint _priceFactor)\n        public\n    {\n        require(_wallet != address(0) && _ceiling > 0 && _priceFactor > 0);\n\n        wallet = _wallet;\n        maxTokenSold = _maxTokenSold;\n        ceiling = _ceiling;\n        priceFactor = _priceFactor;\n        stage = Stages.AuctionDeployed;\n    }\n\n    /// @dev Setup function sets external contracts' addresses.\n    /// @param _token Token address.\n    /// @param _ambix Distillation cube address.\n    function setup(ERC20Burnable _token, address _ambix)\n        public\n        onlyOwner\n        atStage(Stages.AuctionDeployed)\n    {\n        // Validate argument\n        require(_token != ERC20Burnable(0) && _ambix != address(0));\n\n        token = _token;\n        ambix = _ambix;\n\n        // Validate token balance\n        require(token.balanceOf(address(this)) == maxTokenSold);\n\n        stage = Stages.AuctionSetUp;\n    }\n\n    /// @dev Starts auction and sets startBlock.\n    function startAuction()\n        public\n        onlyOwner\n        atStage(Stages.AuctionSetUp)\n    {\n        stage = Stages.AuctionStarted;\n        startBlock = block.number;\n    }\n\n    /// @dev Calculates current token price.\n    /// @return Returns token price.\n    function calcCurrentTokenPrice()\n        public\n        timedTransitions\n        returns (uint)\n    {\n        if (stage == Stages.AuctionEnded || stage == Stages.TradingStarted)\n            return finalPrice;\n        return calcTokenPrice();\n    }\n\n    /// @dev Returns correct stage, even if a function with timedTransitions modifier has not yet been called yet.\n    /// @return Returns current auction stage.\n    function updateStage()\n        public\n        timedTransitions\n        returns (Stages)\n    {\n        return stage;\n    }\n\n    /// @dev Allows to send a bid to the auction.\n    /// @param signature KYC approvement\n    function bid(bytes calldata signature)\n        external\n        payable\n        isValidPayload\n        timedTransitions\n        atStage(Stages.AuctionStarted)\n        onlyValidSignature(signature)\n        returns (uint amount)\n    {\n        require(msg.value > 0);\n        amount = msg.value;\n\n        address payable receiver = msg.sender;\n\n        // Prevent that more than 90% of tokens are sold. Only relevant if cap not reached.\n        uint maxWei = maxTokenSold * calcTokenPrice() / 10**9 - totalReceived;\n        uint maxWeiBasedOnTotalReceived = ceiling - totalReceived;\n        if (maxWeiBasedOnTotalReceived < maxWei)\n            maxWei = maxWeiBasedOnTotalReceived;\n\n        // Only invest maximum possible amount.\n        if (amount > maxWei) {\n            amount = maxWei;\n            // Send change back to receiver address.\n            receiver.transfer(msg.value - amount);\n        }\n\n        // Forward funding to ether wallet\n        (bool success,) = wallet.call.value(amount)(\"\");\n        require(success);\n\n        bids[receiver] += amount;\n        totalReceived += amount;\n        emit BidSubmission(receiver, amount);\n\n        // Finalize auction when maxWei reached\n        if (amount == maxWei)\n            finalizeAuction();\n    }\n\n    /// @dev Claims tokens for bidder after auction.\n    function claimTokens()\n        public\n        isValidPayload\n        timedTransitions\n        atStage(Stages.TradingStarted)\n    {\n        address receiver = msg.sender;\n        uint tokenCount = bids[receiver] * 10**9 / finalPrice;\n        bids[receiver] = 0;\n        token.safeTransfer(receiver, tokenCount);\n    }\n\n    /// @dev Calculates stop price.\n    /// @return Returns stop price.\n    function calcStopPrice()\n        view\n        public\n        returns (uint)\n    {\n        return totalReceived * 10**9 / maxTokenSold + 1;\n    }\n\n    /// @dev Calculates token price.\n    /// @return Returns token price.\n    function calcTokenPrice()\n        view\n        public\n        returns (uint)\n    {\n        return priceFactor * 10**18 / (block.number - startBlock + 7500) + 1;\n    }\n\n    /*\n     *  Private functions\n     */\n    function finalizeAuction()\n        private\n    {\n        stage = Stages.AuctionEnded;\n        finalPrice = totalReceived == ceiling ? calcTokenPrice() : calcStopPrice();\n        uint soldTokens = totalReceived * 10**9 / finalPrice;\n\n        if (totalReceived == ceiling) {\n            // Auction contract transfers all unsold tokens to Ambix contract\n            token.safeTransfer(ambix, maxTokenSold - soldTokens);\n        } else {\n            // Auction contract burn all unsold tokens\n            token.burn(maxTokenSold - soldTokens);\n        }\n\n        endTime = now;\n    }\n}\n",
  "sourcePath": "/home/tubleronchik/work/neon_robonomics_contracts/robonomics_contracts/contracts/misc/DutchAuction.sol",
  "compiler": {
    "name": "solc",
    "version": "0.5.16+commit.9c3226ce.Emscripten.clang"
  },
  "schemaVersion": "3.4.8",
  "updatedAt": "2022-07-05T11:54:12.330Z",
  "networkType": "ethereum",
  "devdoc": {
    "author": "Stefan George - <stefan.george@consensys.net>Airalab - <research@aira.life> ",
    "methods": {
      "bid(bytes)": {
        "details": "Allows to send a bid to the auction.",
        "params": {
          "signature": "KYC approvement"
        }
      },
      "calcCurrentTokenPrice()": {
        "details": "Calculates current token price.",
        "return": "Returns token price."
      },
      "calcStopPrice()": {
        "details": "Calculates stop price.",
        "return": "Returns stop price."
      },
      "calcTokenPrice()": {
        "details": "Calculates token price.",
        "return": "Returns token price."
      },
      "claimTokens()": {
        "details": "Claims tokens for bidder after auction."
      },
      "constructor": {
        "details": "Contract constructor function sets owner.",
        "params": {
          "_ceiling": "Auction ceiling.",
          "_maxTokenSold": "Auction token balance.",
          "_priceFactor": "Auction price factor.",
          "_wallet": "Multisig wallet."
        }
      },
      "isOwner()": {
        "return": "true if `msg.sender` is the owner of the contract."
      },
      "owner()": {
        "return": "the address of the owner."
      },
      "renounceOwnership()": {
        "details": "Allows the current owner to relinquish control of the contract."
      },
      "setup(address,address)": {
        "details": "Setup function sets external contracts' addresses.",
        "params": {
          "_ambix": "Distillation cube address.",
          "_token": "Token address."
        }
      },
      "startAuction()": {
        "details": "Starts auction and sets startBlock."
      },
      "transferOwnership(address)": {
        "details": "Allows the current owner to transfer control of the contract to a newOwner.",
        "params": {
          "newOwner": "The address to transfer ownership to."
        }
      },
      "updateStage()": {
        "details": "Returns correct stage, even if a function with timedTransitions modifier has not yet been called yet.",
        "return": "Returns current auction stage."
      }
    },
    "title": "Dutch auction contract - distribution of XRT tokens using an auction."
  },
  "userdoc": {
    "methods": {
      "renounceOwnership()": {
        "notice": "Renouncing to ownership will leave the contract without an owner. It will not be possible to call the functions with the `onlyOwner` modifier anymore."
      }
    }
  }
}