{
  "contractName": "Factory",
  "abi": [
    {
      "inputs": [
        {
          "internalType": "address",
          "name": "_liability",
          "type": "address"
        },
        {
          "internalType": "address",
          "name": "_lighthouse",
          "type": "address"
        },
        {
          "internalType": "contract DutchAuction",
          "name": "_auction",
          "type": "address"
        },
        {
          "internalType": "contract AbstractENS",
          "name": "_ens",
          "type": "address"
        },
        {
          "internalType": "contract XRT",
          "name": "_xrt",
          "type": "address"
        }
      ],
      "payable": false,
      "stateMutability": "nonpayable",
      "type": "constructor"
    },
    {
      "anonymous": false,
      "inputs": [
        {
          "indexed": true,
          "internalType": "bytes32",
          "name": "hash",
          "type": "bytes32"
        }
      ],
      "name": "HashConsumed",
      "type": "event"
    },
    {
      "anonymous": false,
      "inputs": [
        {
          "indexed": true,
          "internalType": "address",
          "name": "liability",
          "type": "address"
        }
      ],
      "name": "NewLiability",
      "type": "event"
    },
    {
      "anonymous": false,
      "inputs": [
        {
          "indexed": true,
          "internalType": "address",
          "name": "lighthouse",
          "type": "address"
        },
        {
          "indexed": false,
          "internalType": "string",
          "name": "name",
          "type": "string"
        }
      ],
      "name": "NewLighthouse",
      "type": "event"
    },
    {
      "constant": true,
      "inputs": [],
      "name": "auction",
      "outputs": [
        {
          "internalType": "contract DutchAuction",
          "name": "",
          "type": "address"
        }
      ],
      "payable": false,
      "stateMutability": "view",
      "type": "function"
    },
    {
      "constant": true,
      "inputs": [],
      "name": "ens",
      "outputs": [
        {
          "internalType": "contract AbstractENS",
          "name": "",
          "type": "address"
        }
      ],
      "payable": false,
      "stateMutability": "view",
      "type": "function"
    },
    {
      "constant": true,
      "inputs": [
        {
          "internalType": "address",
          "name": "",
          "type": "address"
        }
      ],
      "name": "gasConsumedOf",
      "outputs": [
        {
          "internalType": "uint256",
          "name": "",
          "type": "uint256"
        }
      ],
      "payable": false,
      "stateMutability": "view",
      "type": "function"
    },
    {
      "constant": true,
      "inputs": [],
      "name": "gasEpoch",
      "outputs": [
        {
          "internalType": "uint256",
          "name": "",
          "type": "uint256"
        }
      ],
      "payable": false,
      "stateMutability": "view",
      "type": "function"
    },
    {
      "constant": true,
      "inputs": [],
      "name": "gasPrice",
      "outputs": [
        {
          "internalType": "uint256",
          "name": "",
          "type": "uint256"
        }
      ],
      "payable": false,
      "stateMutability": "view",
      "type": "function"
    },
    {
      "constant": true,
      "inputs": [
        {
          "internalType": "bytes32",
          "name": "",
          "type": "bytes32"
        }
      ],
      "name": "isHashConsumed",
      "outputs": [
        {
          "internalType": "bool",
          "name": "",
          "type": "bool"
        }
      ],
      "payable": false,
      "stateMutability": "view",
      "type": "function"
    },
    {
      "constant": true,
      "inputs": [
        {
          "internalType": "address",
          "name": "",
          "type": "address"
        }
      ],
      "name": "isLighthouse",
      "outputs": [
        {
          "internalType": "bool",
          "name": "",
          "type": "bool"
        }
      ],
      "payable": false,
      "stateMutability": "view",
      "type": "function"
    },
    {
      "constant": true,
      "inputs": [],
      "name": "liabilityCode",
      "outputs": [
        {
          "internalType": "address",
          "name": "",
          "type": "address"
        }
      ],
      "payable": false,
      "stateMutability": "view",
      "type": "function"
    },
    {
      "constant": true,
      "inputs": [],
      "name": "lighthouseCode",
      "outputs": [
        {
          "internalType": "address",
          "name": "",
          "type": "address"
        }
      ],
      "payable": false,
      "stateMutability": "view",
      "type": "function"
    },
    {
      "constant": true,
      "inputs": [
        {
          "internalType": "address",
          "name": "",
          "type": "address"
        }
      ],
      "name": "nonceOf",
      "outputs": [
        {
          "internalType": "uint256",
          "name": "",
          "type": "uint256"
        }
      ],
      "payable": false,
      "stateMutability": "view",
      "type": "function"
    },
    {
      "constant": true,
      "inputs": [],
      "name": "totalGasConsumed",
      "outputs": [
        {
          "internalType": "uint256",
          "name": "",
          "type": "uint256"
        }
      ],
      "payable": false,
      "stateMutability": "view",
      "type": "function"
    },
    {
      "constant": true,
      "inputs": [],
      "name": "xrt",
      "outputs": [
        {
          "internalType": "contract XRT",
          "name": "",
          "type": "address"
        }
      ],
      "payable": false,
      "stateMutability": "view",
      "type": "function"
    },
    {
      "constant": true,
      "inputs": [
        {
          "internalType": "uint256",
          "name": "_gas",
          "type": "uint256"
        }
      ],
      "name": "wnFromGas",
      "outputs": [
        {
          "internalType": "uint256",
          "name": "",
          "type": "uint256"
        }
      ],
      "payable": false,
      "stateMutability": "view",
      "type": "function"
    },
    {
      "constant": false,
      "inputs": [
        {
          "internalType": "uint256",
          "name": "_minimalStake",
          "type": "uint256"
        },
        {
          "internalType": "uint256",
          "name": "_timeoutInBlocks",
          "type": "uint256"
        },
        {
          "internalType": "string",
          "name": "_name",
          "type": "string"
        }
      ],
      "name": "createLighthouse",
      "outputs": [
        {
          "internalType": "contract ILighthouse",
          "name": "lighthouse",
          "type": "address"
        }
      ],
      "payable": false,
      "stateMutability": "nonpayable",
      "type": "function"
    },
    {
      "constant": false,
      "inputs": [
        {
          "internalType": "bytes",
          "name": "_demand",
          "type": "bytes"
        },
        {
          "internalType": "bytes",
          "name": "_offer",
          "type": "bytes"
        }
      ],
      "name": "createLiability",
      "outputs": [
        {
          "internalType": "contract ILiability",
          "name": "liability",
          "type": "address"
        }
      ],
      "payable": false,
      "stateMutability": "nonpayable",
      "type": "function"
    },
    {
      "constant": false,
      "inputs": [
        {
          "internalType": "contract ILiability",
          "name": "_liability",
          "type": "address"
        },
        {
          "internalType": "uint256",
          "name": "_gas",
          "type": "uint256"
        }
      ],
      "name": "liabilityCreated",
      "outputs": [
        {
          "internalType": "bool",
          "name": "",
          "type": "bool"
        }
      ],
      "payable": false,
      "stateMutability": "nonpayable",
      "type": "function"
    },
    {
      "constant": false,
      "inputs": [
        {
          "internalType": "contract ILiability",
          "name": "_liability",
          "type": "address"
        },
        {
          "internalType": "uint256",
          "name": "_gas",
          "type": "uint256"
        }
      ],
      "name": "liabilityFinalized",
      "outputs": [
        {
          "internalType": "bool",
          "name": "",
          "type": "bool"
        }
      ],
      "payable": false,
      "stateMutability": "nonpayable",
      "type": "function"
    }
  ],
  "bytecode": "0x608060405260006002556402540be40060045534801561001e57600080fd5b5060405161261e38038061261e833981810160405260a081101561004157600080fd5b81019080805190602001909291908051906020019092919080519060200190929190805190602001909291908051906020019092919050505084600660006101000a81548173ffffffffffffffffffffffffffffffffffffffff021916908373ffffffffffffffffffffffffffffffffffffffff16021790555083600760006101000a81548173ffffffffffffffffffffffffffffffffffffffff021916908373ffffffffffffffffffffffffffffffffffffffff16021790555082600860006101000a81548173ffffffffffffffffffffffffffffffffffffffff021916908373ffffffffffffffffffffffffffffffffffffffff16021790555081600960006101000a81548173ffffffffffffffffffffffffffffffffffffffff021916908373ffffffffffffffffffffffffffffffffffffffff16021790555080600a60006101000a81548173ffffffffffffffffffffffffffffffffffffffff021916908373ffffffffffffffffffffffffffffffffffffffff160217905550505050505061244b806101d36000396000f3fe608060405234801561001057600080fd5b506004361061010b5760003560e01c8063a51daf26116100a2578063d8fe925011610071578063d8fe9250146105d7578063ed2a2d64146105f5578063fa3260de1461064d578063fe173b9714610693578063feb67918146106b15761010b565b8063a51daf26146103c5578063bbb6630f1461042b578063d2b962f214610487578063d64d136d146105955761010b565b80635afa47c2116100de5780635afa47c21461028f578063773fb7fd146102d95780637d9f6db51461032357806399d5bae11461036d5761010b565b8063284fd42f14610110578063330f95881461012e5780633f15457f146101785780634d5b85f1146101c2575b600080fd5b610118610717565b6040518082815260200191505060405180910390f35b610136610721565b604051808273ffffffffffffffffffffffffffffffffffffffff1673ffffffffffffffffffffffffffffffffffffffff16815260200191505060405180910390f35b610180610747565b604051808273ffffffffffffffffffffffffffffffffffffffff1673ffffffffffffffffffffffffffffffffffffffff16815260200191505060405180910390f35b61024d600480360360608110156101d857600080fd5b8101908080359060200190929190803590602001909291908035906020019064010000000081111561020957600080fd5b82018360208201111561021b57600080fd5b8035906020019184600183028401116401000000008311171561023d57600080fd5b909192939192939050505061076d565b604051808273ffffffffffffffffffffffffffffffffffffffff1673ffffffffffffffffffffffffffffffffffffffff16815260200191505060405180910390f35b610297610dc2565b604051808273ffffffffffffffffffffffffffffffffffffffff1673ffffffffffffffffffffffffffffffffffffffff16815260200191505060405180910390f35b6102e1610de8565b604051808273ffffffffffffffffffffffffffffffffffffffff1673ffffffffffffffffffffffffffffffffffffffff16815260200191505060405180910390f35b61032b610e0e565b604051808273ffffffffffffffffffffffffffffffffffffffff1673ffffffffffffffffffffffffffffffffffffffff16815260200191505060405180910390f35b6103af6004803603602081101561038357600080fd5b81019080803573ffffffffffffffffffffffffffffffffffffffff169060200190929190505050610e34565b6040518082815260200191505060405180910390f35b610411600480360360408110156103db57600080fd5b81019080803573ffffffffffffffffffffffffffffffffffffffff16906020019092919080359060200190929190505050610e4c565b604051808215151515815260200191505060405180910390f35b61046d6004803603602081101561044157600080fd5b81019080803573ffffffffffffffffffffffffffffffffffffffff169060200190929190505050611056565b604051808215151515815260200191505060405180910390f35b6105536004803603604081101561049d57600080fd5b81019080803590602001906401000000008111156104ba57600080fd5b8201836020820111156104cc57600080fd5b803590602001918460018302840111640100000000831117156104ee57600080fd5b90919293919293908035906020019064010000000081111561050f57600080fd5b82018360208201111561052157600080fd5b8035906020019184600183028401116401000000008311171561054357600080fd5b9091929391929390505050611076565b604051808273ffffffffffffffffffffffffffffffffffffffff1673ffffffffffffffffffffffffffffffffffffffff16815260200191505060405180910390f35b6105c1600480360360208110156105ab57600080fd5b8101908080359060200190929190505050611edf565b6040518082815260200191505060405180910390f35b6105df612090565b6040518082815260200191505060405180910390f35b6106376004803603602081101561060b57600080fd5b81019080803573ffffffffffffffffffffffffffffffffffffffff169060200190929190505050612096565b6040518082815260200191505060405180910390f35b6106796004803603602081101561066357600080fd5b81019080803590602001909291905050506120ae565b604051808215151515815260200191505060405180910390f35b61069b6120ce565b6040518082815260200191505060405180910390f35b6106fd600480360360408110156106c757600080fd5b81019080803573ffffffffffffffffffffffffffffffffffffffff169060200190929190803590602001909291905050506120d4565b604051808215151515815260200191505060405180910390f35b650327ec1e0c0081565b600a60009054906101000a900473ffffffffffffffffffffffffffffffffffffffff1681565b600960009054906101000a900473ffffffffffffffffffffffffffffffffffffffff1681565b6000807f8d6c004b56cbe83bbfd9dcbd8f45d1f76398267bbb130a4629d822abc1994b9660001b90506000848460405180838380828437808301925050509250505060405180910390209050600082826040516020018083815260200182815260200192505050604051602081830303815290604052805190602001209050600073ffffffffffffffffffffffffffffffffffffffff16600960009054906101000a900473ffffffffffffffffffffffffffffffffffffffff1673ffffffffffffffffffffffffffffffffffffffff16630178b8bf836040518263ffffffff1660e01b81526004018082815260200191505060206040518083038186803b15801561087757600080fd5b505afa15801561088b573d6000803e3d6000fd5b505050506040513d60208110156108a157600080fd5b810190808051906020019092919050505073ffffffffffffffffffffffffffffffffffffffff16146108d257600080fd5b610913600760009054906101000a900473ffffffffffffffffffffffffffffffffffffffff1673ffffffffffffffffffffffffffffffffffffffff166121aa565b93508373ffffffffffffffffffffffffffffffffffffffff166364f6f7b9600a60009054906101000a900473ffffffffffffffffffffffffffffffffffffffff168a8a6040518463ffffffff1660e01b8152600401808473ffffffffffffffffffffffffffffffffffffffff1673ffffffffffffffffffffffffffffffffffffffff1681526020018381526020018281526020019350505050602060405180830381600087803b1580156109c657600080fd5b505af11580156109da573d6000803e3d6000fd5b505050506040513d60208110156109f057600080fd5b8101908080519060200190929190505050610a0a57600080fd5b8373ffffffffffffffffffffffffffffffffffffffff167ffea5f888ffd98cd2299e704fb235c2166cb5a9d9d8e9debcc08160626b8019a4878760405180806020018281038252848482818152602001925080828437600081840152601f19601f820116905080830192505050935050505060405180910390a260016000808673ffffffffffffffffffffffffffffffffffffffff1673ffffffffffffffffffffffffffffffffffffffff16815260200190815260200160002060006101000a81548160ff021916908315150217905550600960009054906101000a900473ffffffffffffffffffffffffffffffffffffffff1673ffffffffffffffffffffffffffffffffffffffff166306ab59238484306040518463ffffffff1660e01b8152600401808481526020018381526020018273ffffffffffffffffffffffffffffffffffffffff1673ffffffffffffffffffffffffffffffffffffffff1681526020019350505050600060405180830381600087803b158015610b8c57600080fd5b505af1158015610ba0573d6000803e3d6000fd5b505050506000600960009054906101000a900473ffffffffffffffffffffffffffffffffffffffff1673ffffffffffffffffffffffffffffffffffffffff16630178b8bf856040518263ffffffff1660e01b81526004018082815260200191505060206040518083038186803b158015610c1957600080fd5b505afa158015610c2d573d6000803e3d6000fd5b505050506040513d6020811015610c4357600080fd5b81019080805190602001909291905050509050600960009054906101000a900473ffffffffffffffffffffffffffffffffffffffff1673ffffffffffffffffffffffffffffffffffffffff16631896f70a83836040518363ffffffff1660e01b8152600401808381526020018273ffffffffffffffffffffffffffffffffffffffff1673ffffffffffffffffffffffffffffffffffffffff16815260200192505050600060405180830381600087803b158015610cff57600080fd5b505af1158015610d13573d6000803e3d6000fd5b505050508073ffffffffffffffffffffffffffffffffffffffff1663d5fa2b0083876040518363ffffffff1660e01b8152600401808381526020018273ffffffffffffffffffffffffffffffffffffffff1673ffffffffffffffffffffffffffffffffffffffff16815260200192505050600060405180830381600087803b158015610d9e57600080fd5b505af1158015610db2573d6000803e3d6000fd5b5050505050505050949350505050565b600660009054906101000a900473ffffffffffffffffffffffffffffffffffffffff1681565b600760009054906101000a900473ffffffffffffffffffffffffffffffffffffffff1681565b600860009054906101000a900473ffffffffffffffffffffffffffffffffffffffff1681565b60036020528060005260406000206000915090505481565b60008060003373ffffffffffffffffffffffffffffffffffffffff1673ffffffffffffffffffffffffffffffffffffffff16815260200190815260200160002060009054906101000a900460ff16610ea357600080fd5b610eaf6004543a61226b565b60048190555060008390508260026000828254019250508190555082600360008373ffffffffffffffffffffffffffffffffffffffff1673ffffffffffffffffffffffffffffffffffffffff16815260200190815260200160002060008282540192505081905550600a60009054906101000a900473ffffffffffffffffffffffffffffffffffffffff1673ffffffffffffffffffffffffffffffffffffffff166340c10f1932610f9e600360008673ffffffffffffffffffffffffffffffffffffffff1673ffffffffffffffffffffffffffffffffffffffff16815260200190815260200160002054611edf565b6040518363ffffffff1660e01b8152600401808373ffffffffffffffffffffffffffffffffffffffff1673ffffffffffffffffffffffffffffffffffffffff16815260200182815260200192505050602060405180830381600087803b15801561100757600080fd5b505af115801561101b573d6000803e3d6000fd5b505050506040513d602081101561103157600080fd5b810190808051906020019092919050505061104b57600080fd5b600191505092915050565b60006020528060005260406000206000915054906101000a900460ff1681565b60008060003373ffffffffffffffffffffffffffffffffffffffff1673ffffffffffffffffffffffffffffffffffffffff16815260200190815260200160002060009054906101000a900460ff166110cd57600080fd5b61110e600660009054906101000a900473ffffffffffffffffffffffffffffffffffffffff1673ffffffffffffffffffffffffffffffffffffffff166121aa565b90508073ffffffffffffffffffffffffffffffffffffffff166366d38203600a60009054906101000a900473ffffffffffffffffffffffffffffffffffffffff166040518263ffffffff1660e01b8152600401808273ffffffffffffffffffffffffffffffffffffffff1673ffffffffffffffffffffffffffffffffffffffff168152602001915050602060405180830381600087803b1580156111b157600080fd5b505af11580156111c5573d6000803e3d6000fd5b505050506040513d60208110156111db57600080fd5b81019080805190602001909291905050506111f557600080fd5b8073ffffffffffffffffffffffffffffffffffffffff167ff0f0e2354315aae25080baa26761b4ef52d621c91208fb0edde9e3f3fade321960405160405180910390a2600060608273ffffffffffffffffffffffffffffffffffffffff166348a984e460e01b888860405160200180847bffffffffffffffffffffffffffffffffffffffffffffffffffffffff19167bffffffffffffffffffffffffffffffffffffffffffffffffffffffff191681526004018383808284378083019250505093505050506040516020818303038152906040526040518082805190602001908083835b602083106112fc57805182526020820191506020810190506020830392506112d9565b6001836020036101000a0380198251168184511680821785525050505050509050019150506000604051808303816000865af19150503d806000811461135e576040519150601f19603f3d011682016040523d82523d6000602084013e611363565b606091505b50915091508161137257600080fd5b6113fb8373ffffffffffffffffffffffffffffffffffffffff1663f0476bc56040518163ffffffff1660e01b815260040160206040518083038186803b1580156113bb57600080fd5b505afa1580156113cf573d6000803e3d6000fd5b505050506040513d60208110156113e557600080fd5b810190808051906020019092919050505061228a565b60018060008573ffffffffffffffffffffffffffffffffffffffff1663474ce8726040518163ffffffff1660e01b815260040160206040518083038186803b15801561144657600080fd5b505afa15801561145a573d6000803e3d6000fd5b505050506040513d602081101561147057600080fd5b810190808051906020019092919050505073ffffffffffffffffffffffffffffffffffffffff1673ffffffffffffffffffffffffffffffffffffffff168152602001908152602001600020600082825401925050819055508273ffffffffffffffffffffffffffffffffffffffff1663413781d260e01b868660405160200180847bffffffffffffffffffffffffffffffffffffffffffffffffffffffff19167bffffffffffffffffffffffffffffffffffffffffffffffffffffffff191681526004018383808284378083019250505093505050506040516020818303038152906040526040518082805190602001908083835b602083106115885780518252602082019150602081019050602083039250611565565b6001836020036101000a0380198251168184511680821785525050505050509050019150506000604051808303816000865af19150503d80600081146115ea576040519150601f19603f3d011682016040523d82523d6000602084013e6115ef565b606091505b5080925081935050508161160257600080fd5b61168b8373ffffffffffffffffffffffffffffffffffffffff1663699373ca6040518163ffffffff1660e01b815260040160206040518083038186803b15801561164b57600080fd5b505afa15801561165f573d6000803e3d6000fd5b505050506040513d602081101561167557600080fd5b810190808051906020019092919050505061228a565b60018060008573ffffffffffffffffffffffffffffffffffffffff1663c2d8de546040518163ffffffff1660e01b815260040160206040518083038186803b1580156116d657600080fd5b505afa1580156116ea573d6000803e3d6000fd5b505050506040513d602081101561170057600080fd5b810190808051906020019092919050505073ffffffffffffffffffffffffffffffffffffffff1673ffffffffffffffffffffffffffffffffffffffff168152602001908152602001600020600082825401925050819055506000808473ffffffffffffffffffffffffffffffffffffffff16636301fd636040518163ffffffff1660e01b815260040160206040518083038186803b1580156117a157600080fd5b505afa1580156117b5573d6000803e3d6000fd5b505050506040513d60208110156117cb57600080fd5b810190808051906020019092919050505073ffffffffffffffffffffffffffffffffffffffff1673ffffffffffffffffffffffffffffffffffffffff16815260200190815260200160002060009054906101000a900460ff1661182d57600080fd5b60008373ffffffffffffffffffffffffffffffffffffffff1663051064c66040518163ffffffff1660e01b815260040160206040518083038186803b15801561187557600080fd5b505afa158015611889573d6000803e3d6000fd5b505050506040513d602081101561189f57600080fd5b81019080805190602001909291905050501115611a0657611a058373ffffffffffffffffffffffffffffffffffffffff1663c2d8de546040518163ffffffff1660e01b815260040160206040518083038186803b1580156118ff57600080fd5b505afa158015611913573d6000803e3d6000fd5b505050506040513d602081101561192957600080fd5b8101908080519060200190929190505050328573ffffffffffffffffffffffffffffffffffffffff1663051064c66040518163ffffffff1660e01b815260040160206040518083038186803b15801561198157600080fd5b505afa158015611995573d6000803e3d6000fd5b505050506040513d60208110156119ab57600080fd5b8101908080519060200190929190505050600a60009054906101000a900473ffffffffffffffffffffffffffffffffffffffff1673ffffffffffffffffffffffffffffffffffffffff16612311909392919063ffffffff16565b5b60008373ffffffffffffffffffffffffffffffffffffffff1663fc0c546a6040518163ffffffff1660e01b815260040160206040518083038186803b158015611a4e57600080fd5b505afa158015611a62573d6000803e3d6000fd5b505050506040513d6020811015611a7857600080fd5b8101908080519060200190929190505050905060008473ffffffffffffffffffffffffffffffffffffffff166313faede66040518163ffffffff1660e01b815260040160206040518083038186803b158015611ad357600080fd5b505afa158015611ae7573d6000803e3d6000fd5b505050506040513d6020811015611afd57600080fd5b81019080805190602001909291905050501115611c4257611c418473ffffffffffffffffffffffffffffffffffffffff1663474ce8726040518163ffffffff1660e01b815260040160206040518083038186803b158015611b5d57600080fd5b505afa158015611b71573d6000803e3d6000fd5b505050506040513d6020811015611b8757600080fd5b8101908080519060200190929190505050858673ffffffffffffffffffffffffffffffffffffffff166313faede66040518163ffffffff1660e01b815260040160206040518083038186803b158015611bdf57600080fd5b505afa158015611bf3573d6000803e3d6000fd5b505050506040513d6020811015611c0957600080fd5b81019080805190602001909291905050508473ffffffffffffffffffffffffffffffffffffffff16612311909392919063ffffffff16565b5b600073ffffffffffffffffffffffffffffffffffffffff168473ffffffffffffffffffffffffffffffffffffffff16633a5381b56040518163ffffffff1660e01b815260040160206040518083038186803b158015611ca057600080fd5b505afa158015611cb4573d6000803e3d6000fd5b505050506040513d6020811015611cca57600080fd5b810190808051906020019092919050505073ffffffffffffffffffffffffffffffffffffffff1614158015611d7f575060008473ffffffffffffffffffffffffffffffffffffffff16633f6d82566040518163ffffffff1660e01b815260040160206040518083038186803b158015611d4257600080fd5b505afa158015611d56573d6000803e3d6000fd5b505050506040513d6020811015611d6c57600080fd5b8101908080519060200190929190505050115b15611ed457611ed38473ffffffffffffffffffffffffffffffffffffffff1663474ce8726040518163ffffffff1660e01b815260040160206040518083038186803b158015611dcd57600080fd5b505afa158015611de1573d6000803e3d6000fd5b505050506040513d6020811015611df757600080fd5b8101908080519060200190929190505050858673ffffffffffffffffffffffffffffffffffffffff16633f6d82566040518163ffffffff1660e01b815260040160206040518083038186803b158015611e4f57600080fd5b505afa158015611e63573d6000803e3d6000fd5b505050506040513d6020811015611e7957600080fd5b8101908080519060200190929190505050600a60009054906101000a900473ffffffffffffffffffffffffffffffffffffffff1673ffffffffffffffffffffffffffffffffffffffff16612311909392919063ffffffff16565b5b505050949350505050565b600080600860009054906101000a900473ffffffffffffffffffffffffffffffffffffffff1673ffffffffffffffffffffffffffffffffffffffff1663a6b513ee6040518163ffffffff1660e01b815260040160206040518083038186803b158015611f4a57600080fd5b505afa158015611f5e573d6000803e3d6000fd5b505050506040513d6020811015611f7457600080fd5b81019080805190602001909291905050501415611f965760968202905061208b565b6000650327ec1e0c0060025481611fa957fe5b0490506000600860009054906101000a900473ffffffffffffffffffffffffffffffffffffffff1673ffffffffffffffffffffffffffffffffffffffff1663a6b513ee6040518163ffffffff1660e01b815260040160206040518083038186803b15801561201657600080fd5b505afa15801561202a573d6000803e3d6000fd5b505050506040513d602081101561204057600080fd5b81019080805190602001909291905050508260030a8360020a600454633b9aca00880202028161206c57fe5b048161207457fe5b0490508381106120845780612086565b835b925050505b919050565b60025481565b60016020528060005260406000206000915090505481565b60056020528060005260406000206000915054906101000a900460ff1681565b60045481565b60008060003373ffffffffffffffffffffffffffffffffffffffff1673ffffffffffffffffffffffffffffffffffffffff16815260200190815260200160002060009054906101000a900460ff1661212b57600080fd5b6121376004543a61226b565b60048190555060008390508260026000828254019250508190555082600360008373ffffffffffffffffffffffffffffffffffffffff1673ffffffffffffffffffffffffffffffffffffffff16815260200190815260200160002060008282540192505081905550600191505092915050565b600060608260405160200180807f603160008181600b9039f36000808080803680928037730000000000000000008152506017018273ffffffffffffffffffffffffffffffffffffffff1673ffffffffffffffffffffffffffffffffffffffff1660601b8152601401807f5af43d828181803e808314603057f35bfd0000000000000000000000000000008152506011019150506040516020818303038152906040529050603c602082016000f09150813b61226557600080fd5b50919050565b60006103e88260016103e8038502018161228157fe5b04905092915050565b6005600082815260200190815260200160002060009054906101000a900460ff16156122b557600080fd5b60016005600083815260200190815260200160002060006101000a81548160ff021916908315150217905550807fff8bad61d8f2eaa50a98cc8d31de285608e5a904d330f193043d6c9854e2586d60405160405180910390a250565b8373ffffffffffffffffffffffffffffffffffffffff166323b872dd8484846040518463ffffffff1660e01b8152600401808473ffffffffffffffffffffffffffffffffffffffff1673ffffffffffffffffffffffffffffffffffffffff1681526020018373ffffffffffffffffffffffffffffffffffffffff1673ffffffffffffffffffffffffffffffffffffffff1681526020018281526020019350505050602060405180830381600087803b1580156123cc57600080fd5b505af11580156123e0573d6000803e3d6000fd5b505050506040513d60208110156123f657600080fd5b810190808051906020019092919050505061241057600080fd5b5050505056fea265627a7a7231582079d765575adf495ceef5a4fba840198efc4e339671e059279ff75fe8d1a606eb64736f6c63430005100032",
  "source": "pragma solidity ^0.5.0;\n\nimport 'openzeppelin-solidity/contracts/token/ERC20/SafeERC20.sol';\n\nimport '../ens/AbstractENS.sol';\nimport '../ens/AbstractResolver.sol';\nimport '../misc/SingletonHash.sol';\nimport '../misc/DutchAuction.sol';\nimport '../misc/SharedCode.sol';\n\nimport './interface/IFactory.sol';\n\nimport './Lighthouse.sol';\nimport './Liability.sol';\nimport './XRT.sol';\n\ncontract Factory is IFactory, SingletonHash {\n    constructor(\n        address _liability,\n        address _lighthouse,\n        DutchAuction _auction,\n        AbstractENS _ens,\n        XRT _xrt\n    ) public {\n        liabilityCode = _liability;\n        lighthouseCode = _lighthouse;\n        auction = _auction;\n        ens = _ens;\n        xrt = _xrt;\n    }\n\n    address public liabilityCode;\n    address public lighthouseCode;\n\n    using SafeERC20 for XRT;\n    using SafeERC20 for ERC20;\n    using SharedCode for address;\n\n    /**\n     * @dev Robonomics dutch auction contract\n     */\n    DutchAuction public auction;\n\n    /**\n     * @dev Ethereum name system\n     */\n    AbstractENS public ens;\n\n    /**\n     * @dev Robonomics network protocol token\n     */\n    XRT public xrt;\n\n    /**\n     * @dev SMMA filter with function: SMMA(i) = (SMMA(i-1)*(n-1) + PRICE(i)) / n\n     * @param _prePrice PRICE[n-1]\n     * @param _price PRICE[n]\n     * @return filtered price\n     */\n    function smma(uint256 _prePrice, uint256 _price) internal pure returns (uint256) {\n        return (_prePrice * (smmaPeriod - 1) + _price) / smmaPeriod;\n    }\n\n    /**\n     * @dev SMMA filter period\n     */\n    uint256 private constant smmaPeriod = 1000;\n\n    /**\n     * @dev XRT emission value for utilized gas\n     */\n    function wnFromGas(uint256 _gas) public view returns (uint256) {\n        // Just return wn=gas*150 when auction isn't finish\n        if (auction.finalPrice() == 0)\n            return _gas * 150;\n\n        // Current gas utilization epoch\n        uint256 epoch = totalGasConsumed / gasEpoch;\n\n        // XRT emission with addition coefficient by gas utilzation epoch\n        uint256 wn = _gas * 10**9 * gasPrice * 2**epoch / 3**epoch / auction.finalPrice();\n\n        // Check to not permit emission decrease below wn=gas\n        return wn < _gas ? _gas : wn;\n    }\n\n    modifier onlyLighthouse {\n        require(isLighthouse[msg.sender]);\n\n        _;\n    }\n\n    modifier gasPriceEstimate {\n        gasPrice = smma(gasPrice, tx.gasprice);\n\n        _;\n    }\n\n    function createLighthouse(\n        uint256 _minimalStake,\n        uint256 _timeoutInBlocks,\n        string  calldata _name\n    )\n        external\n        returns (ILighthouse lighthouse)\n    {\n        bytes32 LIGHTHOUSE_NODE\n            // lighthouse.5.robonomics.eth\n            = 0x8d6c004b56cbe83bbfd9dcbd8f45d1f76398267bbb130a4629d822abc1994b96;\n        bytes32 hname = keccak256(bytes(_name));\n\n        // Name reservation check\n        bytes32 subnode = keccak256(abi.encodePacked(LIGHTHOUSE_NODE, hname));\n        require(ens.resolver(subnode) == address(0));\n\n        // Create lighthouse\n        lighthouse = ILighthouse(lighthouseCode.proxy());\n        require(Lighthouse(address(lighthouse)).setup(xrt, _minimalStake, _timeoutInBlocks));\n\n        emit NewLighthouse(address(lighthouse), _name);\n        isLighthouse[address(lighthouse)] = true;\n\n        // Register subnode\n        ens.setSubnodeOwner(LIGHTHOUSE_NODE, hname, address(this));\n\n        // Register lighthouse address\n        AbstractResolver resolver = AbstractResolver(ens.resolver(LIGHTHOUSE_NODE));\n        ens.setResolver(subnode, address(resolver));\n        resolver.setAddr(subnode, address(lighthouse));\n    }\n\n    function createLiability(\n        bytes calldata _demand,\n        bytes calldata _offer\n    )\n        external\n        onlyLighthouse\n        returns (ILiability liability)\n    {\n        // Create liability\n        liability = ILiability(liabilityCode.proxy());\n        require(Liability(address(liability)).setup(xrt));\n\n        emit NewLiability(address(liability));\n\n        // Parse messages\n        (bool success, bytes memory returnData)\n            = address(liability).call(abi.encodePacked(bytes4(0x48a984e4), _demand)); // liability.demand(...)\n        require(success);\n        singletonHash(liability.demandHash());\n        nonceOf[liability.promisee()] += 1;\n\n        (success, returnData)\n            = address(liability).call(abi.encodePacked(bytes4(0x413781d2), _offer)); // liability.offer(...)\n        require(success);\n        singletonHash(liability.offerHash());\n        nonceOf[liability.promisor()] += 1;\n\n        // Check lighthouse\n        require(isLighthouse[liability.lighthouse()]);\n\n        // Transfer lighthouse fee to lighthouse worker directly\n        if (liability.lighthouseFee() > 0)\n            xrt.safeTransferFrom(liability.promisor(),\n                                 tx.origin,\n                                 liability.lighthouseFee());\n\n        // Transfer liability security and hold on contract\n        ERC20 token = ERC20(liability.token());\n        if (liability.cost() > 0)\n            token.safeTransferFrom(liability.promisee(),\n                                   address(liability),\n                                   liability.cost());\n\n        // Transfer validator fee and hold on contract\n        if (liability.validator() != address(0) && liability.validatorFee() > 0)\n            xrt.safeTransferFrom(liability.promisee(),\n                                 address(liability),\n                                 liability.validatorFee());\n     }\n\n    function liabilityCreated(\n        ILiability _liability,\n        uint256 _gas\n    )\n        external\n        onlyLighthouse\n        gasPriceEstimate\n        returns (bool)\n    {\n        address liability = address(_liability);\n        totalGasConsumed         += _gas;\n        gasConsumedOf[liability] += _gas;\n        return true;\n    }\n\n    function liabilityFinalized(\n        ILiability _liability,\n        uint256 _gas\n    )\n        external\n        onlyLighthouse\n        gasPriceEstimate\n        returns (bool)\n    {\n        address liability = address(_liability);\n        totalGasConsumed         += _gas;\n        gasConsumedOf[liability] += _gas;\n        require(xrt.mint(tx.origin, wnFromGas(gasConsumedOf[liability])));\n        return true;\n    }\n}\n",
  "sourcePath": "/home/tubleronchik/work/neon_robonomics_contracts/robonomics_contracts/contracts/robonomics/Factory.sol",
  "compiler": {
    "name": "solc",
    "version": "0.5.16+commit.9c3226ce.Emscripten.clang"
  },
  "schemaVersion": "3.4.8",
  "updatedAt": "2022-07-05T11:54:15.772Z",
  "networkType": "ethereum",
  "devdoc": {
    "methods": {
      "wnFromGas(uint256)": {
        "details": "XRT emission value for utilized gas"
      }
    }
  },
  "userdoc": {
    "methods": {}
  }
}