{
  "contractName": "Lighthouse",
  "abi": [
    {
      "anonymous": false,
      "inputs": [
        {
          "indexed": true,
          "internalType": "address",
          "name": "provider",
          "type": "address"
        },
        {
          "indexed": true,
          "internalType": "uint256",
          "name": "quota",
          "type": "uint256"
        }
      ],
      "name": "Current",
      "type": "event"
    },
    {
      "anonymous": false,
      "inputs": [
        {
          "indexed": true,
          "internalType": "address",
          "name": "provider",
          "type": "address"
        }
      ],
      "name": "Offline",
      "type": "event"
    },
    {
      "anonymous": false,
      "inputs": [
        {
          "indexed": true,
          "internalType": "address",
          "name": "provider",
          "type": "address"
        }
      ],
      "name": "Online",
      "type": "event"
    },
    {
      "constant": true,
      "inputs": [],
      "name": "factory",
      "outputs": [
        {
          "internalType": "contract IFactory",
          "name": "",
          "type": "address"
        }
      ],
      "payable": false,
      "stateMutability": "view",
      "type": "function"
    },
    {
      "constant": true,
      "inputs": [
        {
          "internalType": "address",
          "name": "",
          "type": "address"
        }
      ],
      "name": "indexOf",
      "outputs": [
        {
          "internalType": "uint256",
          "name": "",
          "type": "uint256"
        }
      ],
      "payable": false,
      "stateMutability": "view",
      "type": "function"
    },
    {
      "constant": true,
      "inputs": [],
      "name": "keepAliveBlock",
      "outputs": [
        {
          "internalType": "uint256",
          "name": "",
          "type": "uint256"
        }
      ],
      "payable": false,
      "stateMutability": "view",
      "type": "function"
    },
    {
      "constant": true,
      "inputs": [],
      "name": "marker",
      "outputs": [
        {
          "internalType": "uint256",
          "name": "",
          "type": "uint256"
        }
      ],
      "payable": false,
      "stateMutability": "view",
      "type": "function"
    },
    {
      "constant": true,
      "inputs": [],
      "name": "minimalStake",
      "outputs": [
        {
          "internalType": "uint256",
          "name": "",
          "type": "uint256"
        }
      ],
      "payable": false,
      "stateMutability": "view",
      "type": "function"
    },
    {
      "constant": true,
      "inputs": [
        {
          "internalType": "uint256",
          "name": "",
          "type": "uint256"
        }
      ],
      "name": "providers",
      "outputs": [
        {
          "internalType": "address",
          "name": "",
          "type": "address"
        }
      ],
      "payable": false,
      "stateMutability": "view",
      "type": "function"
    },
    {
      "constant": true,
      "inputs": [],
      "name": "providersLength",
      "outputs": [
        {
          "internalType": "uint256",
          "name": "",
          "type": "uint256"
        }
      ],
      "payable": false,
      "stateMutability": "view",
      "type": "function"
    },
    {
      "constant": true,
      "inputs": [],
      "name": "quota",
      "outputs": [
        {
          "internalType": "uint256",
          "name": "",
          "type": "uint256"
        }
      ],
      "payable": false,
      "stateMutability": "view",
      "type": "function"
    },
    {
      "constant": true,
      "inputs": [
        {
          "internalType": "address",
          "name": "_provider",
          "type": "address"
        }
      ],
      "name": "quotaOf",
      "outputs": [
        {
          "internalType": "uint256",
          "name": "",
          "type": "uint256"
        }
      ],
      "payable": false,
      "stateMutability": "view",
      "type": "function"
    },
    {
      "constant": true,
      "inputs": [
        {
          "internalType": "address",
          "name": "",
          "type": "address"
        }
      ],
      "name": "stakes",
      "outputs": [
        {
          "internalType": "uint256",
          "name": "",
          "type": "uint256"
        }
      ],
      "payable": false,
      "stateMutability": "view",
      "type": "function"
    },
    {
      "constant": true,
      "inputs": [],
      "name": "timeoutInBlocks",
      "outputs": [
        {
          "internalType": "uint256",
          "name": "",
          "type": "uint256"
        }
      ],
      "payable": false,
      "stateMutability": "view",
      "type": "function"
    },
    {
      "constant": true,
      "inputs": [],
      "name": "xrt",
      "outputs": [
        {
          "internalType": "contract XRT",
          "name": "",
          "type": "address"
        }
      ],
      "payable": false,
      "stateMutability": "view",
      "type": "function"
    },
    {
      "constant": false,
      "inputs": [
        {
          "internalType": "contract XRT",
          "name": "_xrt",
          "type": "address"
        },
        {
          "internalType": "uint256",
          "name": "_minimalStake",
          "type": "uint256"
        },
        {
          "internalType": "uint256",
          "name": "_timeoutInBlocks",
          "type": "uint256"
        }
      ],
      "name": "setup",
      "outputs": [
        {
          "internalType": "bool",
          "name": "",
          "type": "bool"
        }
      ],
      "payable": false,
      "stateMutability": "nonpayable",
      "type": "function"
    },
    {
      "constant": false,
      "inputs": [
        {
          "internalType": "uint256",
          "name": "_value",
          "type": "uint256"
        }
      ],
      "name": "refill",
      "outputs": [
        {
          "internalType": "bool",
          "name": "",
          "type": "bool"
        }
      ],
      "payable": false,
      "stateMutability": "nonpayable",
      "type": "function"
    },
    {
      "constant": false,
      "inputs": [
        {
          "internalType": "uint256",
          "name": "_value",
          "type": "uint256"
        }
      ],
      "name": "withdraw",
      "outputs": [
        {
          "internalType": "bool",
          "name": "",
          "type": "bool"
        }
      ],
      "payable": false,
      "stateMutability": "nonpayable",
      "type": "function"
    },
    {
      "constant": false,
      "inputs": [
        {
          "internalType": "bytes",
          "name": "_demand",
          "type": "bytes"
        },
        {
          "internalType": "bytes",
          "name": "_offer",
          "type": "bytes"
        }
      ],
      "name": "createLiability",
      "outputs": [
        {
          "internalType": "bool",
          "name": "",
          "type": "bool"
        }
      ],
      "payable": false,
      "stateMutability": "nonpayable",
      "type": "function"
    },
    {
      "constant": false,
      "inputs": [
        {
          "internalType": "address",
          "name": "_liability",
          "type": "address"
        },
        {
          "internalType": "bytes",
          "name": "_result",
          "type": "bytes"
        },
        {
          "internalType": "bool",
          "name": "_success",
          "type": "bool"
        },
        {
          "internalType": "bytes",
          "name": "_signature",
          "type": "bytes"
        }
      ],
      "name": "finalizeLiability",
      "outputs": [
        {
          "internalType": "bool",
          "name": "",
          "type": "bool"
        }
      ],
      "payable": false,
      "stateMutability": "nonpayable",
      "type": "function"
    }
  ],
  "bytecode": "0x608060405234801561001057600080fd5b506119a1806100206000396000f3fe608060405234801561001057600080fd5b506004361061010b5760003560e01c8063678bd169116100a2578063ca9d07ba11610071578063ca9d07ba146104c8578063cebe09c91461050e578063d2b962f21461052c578063ef23b3a314610612578063fd6aad251461066a5761010b565b8063678bd169146104245780639ec41a2d14610442578063ad23fe7314610460578063c45a01551461047e5761010b565b80634ed75ded116100de5780634ed75ded1461021657806350f3fc8114610234578063563e52d5146102a257806364f6f7b9146103b45761010b565b806316934fc4146101105780632e1a7d4d14610168578063330f9588146101ae5780633acddfc1146101f8575b600080fd5b6101526004803603602081101561012657600080fd5b81019080803573ffffffffffffffffffffffffffffffffffffffff1690602001909291905050506106c2565b6040518082815260200191505060405180910390f35b6101946004803603602081101561017e57600080fd5b81019080803590602001909291905050506106da565b604051808215151515815260200191505060405180910390f35b6101b6610a41565b604051808273ffffffffffffffffffffffffffffffffffffffff1673ffffffffffffffffffffffffffffffffffffffff16815260200191505060405180910390f35b610200610a67565b6040518082815260200191505060405180910390f35b61021e610a6d565b6040518082815260200191505060405180910390f35b6102606004803603602081101561024a57600080fd5b8101908080359060200190929190505050610a73565b604051808273ffffffffffffffffffffffffffffffffffffffff1673ffffffffffffffffffffffffffffffffffffffff16815260200191505060405180910390f35b61039a600480360360808110156102b857600080fd5b81019080803573ffffffffffffffffffffffffffffffffffffffff169060200190929190803590602001906401000000008111156102f557600080fd5b82018360208201111561030757600080fd5b8035906020019184600183028401116401000000008311171561032957600080fd5b90919293919293908035151590602001909291908035906020019064010000000081111561035657600080fd5b82018360208201111561036857600080fd5b8035906020019184600183028401116401000000008311171561038a57600080fd5b9091929391929390505050610aaf565b604051808215151515815260200191505060405180910390f35b61040a600480360360608110156103ca57600080fd5b81019080803573ffffffffffffffffffffffffffffffffffffffff1690602001909291908035906020019092919080359060200190929190505050610dbd565b604051808215151515815260200191505060405180910390f35b61042c610ecc565b6040518082815260200191505060405180910390f35b61044a610ed2565b6040518082815260200191505060405180910390f35b610468610ed8565b6040518082815260200191505060405180910390f35b610486610ee4565b604051808273ffffffffffffffffffffffffffffffffffffffff1673ffffffffffffffffffffffffffffffffffffffff16815260200191505060405180910390f35b6104f4600480360360208110156104de57600080fd5b8101908080359060200190929190505050610f0a565b604051808215151515815260200191505060405180910390f35b6105166110fb565b6040518082815260200191505060405180910390f35b6105f86004803603604081101561054257600080fd5b810190808035906020019064010000000081111561055f57600080fd5b82018360208201111561057157600080fd5b8035906020019184600183028401116401000000008311171561059357600080fd5b9091929391929390803590602001906401000000008111156105b457600080fd5b8201836020820111156105c657600080fd5b803590602001918460018302840111640100000000831117156105e857600080fd5b9091929391929390505050611101565b604051808215151515815260200191505060405180910390f35b6106546004803603602081101561062857600080fd5b81019080803573ffffffffffffffffffffffffffffffffffffffff16906020019092919050505061136d565b6040518082815260200191505060405180910390f35b6106ac6004803603602081101561068057600080fd5b81019080803573ffffffffffffffffffffffffffffffffffffffff1690602001909291905050506113c1565b6040518082815260200191505060405180910390f35b60016020528060005260406000206000915090505481565b600081600160003373ffffffffffffffffffffffffffffffffffffffff1673ffffffffffffffffffffffffffffffffffffffff16815260200190815260200160002054101561072857600080fd5b81600160003373ffffffffffffffffffffffffffffffffffffffff1673ffffffffffffffffffffffffffffffffffffffff168152602001908152602001600020600082825403925050819055506107c23383600860009054906101000a900473ffffffffffffffffffffffffffffffffffffffff1673ffffffffffffffffffffffffffffffffffffffff166113d99092919063ffffffff16565b60006107cd3361136d565b1415610a38576000600160003373ffffffffffffffffffffffffffffffffffffffff1673ffffffffffffffffffffffffffffffffffffffff1681526020019081526020016000205490506000600160003373ffffffffffffffffffffffffffffffffffffffff1673ffffffffffffffffffffffffffffffffffffffff168152602001908152602001600020819055506108a93382600860009054906101000a900473ffffffffffffffffffffffffffffffffffffffff1673ffffffffffffffffffffffffffffffffffffffff166113d99092919063ffffffff16565b60006001600960003373ffffffffffffffffffffffffffffffffffffffff1673ffffffffffffffffffffffffffffffffffffffff168152602001908152602001600020540390506000600160008054905003905080821015610993576000818154811061091257fe5b9060005260206000200160009054906101000a900473ffffffffffffffffffffffffffffffffffffffff166000838154811061094a57fe5b9060005260206000200160006101000a81548173ffffffffffffffffffffffffffffffffffffffff021916908373ffffffffffffffffffffffffffffffffffffffff1602179055505b60016000818180549050039150816109ab919061191b565b506000600960003373ffffffffffffffffffffffffffffffffffffffff1673ffffffffffffffffffffffffffffffffffffffff168152602001908152602001600020819055503373ffffffffffffffffffffffffffffffffffffffff167f3bc83fff2907676f544f59cca17a4d818ad142c57b57bc028867db31ca8e5b3560405160405180910390a25050505b60019050919050565b600860009054906101000a900473ffffffffffffffffffffffffffffffffffffffff1681565b60055481565b60045481565b60008181548110610a8057fe5b906000526020600020016000915054906101000a900473ffffffffffffffffffffffffffffffffffffffff1681565b60008061573f610abd6114a9565b019050610ac861152a565b610ad0611677565b60008890506000600760009054906101000a900473ffffffffffffffffffffffffffffffffffffffff1673ffffffffffffffffffffffffffffffffffffffff166399d5bae18b6040518263ffffffff1660e01b8152600401808273ffffffffffffffffffffffffffffffffffffffff1673ffffffffffffffffffffffffffffffffffffffff16815260200191505060206040518083038186803b158015610b7657600080fd5b505afa158015610b8a573d6000803e3d6000fd5b505050506040513d6020811015610ba057600080fd5b810190808051906020019092919050505011610bbb57600080fd5b8073ffffffffffffffffffffffffffffffffffffffff16634fe6365e89898989896040518663ffffffff1660e01b8152600401808060200185151515158152602001806020018381038352888882818152602001925080828437600081840152601f19601f8201169050808301925050508381038252858582818152602001925080828437600081840152601f19601f820116905080830192505050975050505050505050602060405180830381600087803b158015610c7a57600080fd5b505af1158015610c8e573d6000803e3d6000fd5b505050506040513d6020811015610ca457600080fd5b8101908080519060200190929190505050610cbe57600080fd5b600760009054906101000a900473ffffffffffffffffffffffffffffffffffffffff1673ffffffffffffffffffffffffffffffffffffffff1663a51daf26825a85036040518363ffffffff1660e01b8152600401808373ffffffffffffffffffffffffffffffffffffffff1673ffffffffffffffffffffffffffffffffffffffff16815260200182815260200192505050602060405180830381600087803b158015610d6957600080fd5b505af1158015610d7d573d6000803e3d6000fd5b505050506040513d6020811015610d9357600080fd5b8101908080519060200190929190505050610dad57600080fd5b6001925050509695505050505050565b60008073ffffffffffffffffffffffffffffffffffffffff16600760009054906101000a900473ffffffffffffffffffffffffffffffffffffffff1673ffffffffffffffffffffffffffffffffffffffff16148015610e1c5750600083115b8015610e285750600082115b610e3157600080fd5b826002819055508160038190555033600760006101000a81548173ffffffffffffffffffffffffffffffffffffffff021916908373ffffffffffffffffffffffffffffffffffffffff16021790555083600860006101000a81548173ffffffffffffffffffffffffffffffffffffffff021916908373ffffffffffffffffffffffffffffffffffffffff160217905550600190509392505050565b60035481565b60025481565b60008080549050905090565b600760009054906101000a900473ffffffffffffffffffffffffffffffffffffffff1681565b6000610f5b333084600860009054906101000a900473ffffffffffffffffffffffffffffffffffffffff1673ffffffffffffffffffffffffffffffffffffffff16611816909392919063ffffffff16565b6000600160003373ffffffffffffffffffffffffffffffffffffffff1673ffffffffffffffffffffffffffffffffffffffff1681526020019081526020016000205414156110a557600254821015610fb257600080fd5b60003390806001815401808255809150509060018203906000526020600020016000909192909190916101000a81548173ffffffffffffffffffffffffffffffffffffffff021916908373ffffffffffffffffffffffffffffffffffffffff16021790555050600080549050600960003373ffffffffffffffffffffffffffffffffffffffff1673ffffffffffffffffffffffffffffffffffffffff168152602001908152602001600020819055503373ffffffffffffffffffffffffffffffffffffffff167fb87e760cbc2db6791d417f8be7b6b859468d348a1e174f37374530d391b9cb5760405160405180910390a25b81600160003373ffffffffffffffffffffffffffffffffffffffff1673ffffffffffffffffffffffffffffffffffffffff1681526020019081526020016000206000828254019250508190555060019050919050565b60065481565b60008061131761110f6114a9565b01905061111a61152a565b611122611677565b6000600760009054906101000a900473ffffffffffffffffffffffffffffffffffffffff1673ffffffffffffffffffffffffffffffffffffffff1663d2b962f2888888886040518563ffffffff1660e01b81526004018080602001806020018381038352878782818152602001925080828437600081840152601f19601f8201169050808301925050508381038252858582818152602001925080828437600081840152601f19601f8201169050808301925050509650505050505050602060405180830381600087803b1580156111f957600080fd5b505af115801561120d573d6000803e3d6000fd5b505050506040513d602081101561122357600080fd5b81019080805190602001909291905050509050600073ffffffffffffffffffffffffffffffffffffffff168173ffffffffffffffffffffffffffffffffffffffff16141561127057600080fd5b600760009054906101000a900473ffffffffffffffffffffffffffffffffffffffff1673ffffffffffffffffffffffffffffffffffffffff1663feb67918825a85036040518363ffffffff1660e01b8152600401808373ffffffffffffffffffffffffffffffffffffffff1673ffffffffffffffffffffffffffffffffffffffff16815260200182815260200192505050602060405180830381600087803b15801561131b57600080fd5b505af115801561132f573d6000803e3d6000fd5b505050506040513d602081101561134557600080fd5b810190808051906020019092919050505061135f57600080fd5b600192505050949350505050565b6000600254600160008473ffffffffffffffffffffffffffffffffffffffff1673ffffffffffffffffffffffffffffffffffffffff16815260200190815260200160002054816113b957fe5b049050919050565b60096020528060005260406000206000915090505481565b8273ffffffffffffffffffffffffffffffffffffffff1663a9059cbb83836040518363ffffffff1660e01b8152600401808373ffffffffffffffffffffffffffffffffffffffff1673ffffffffffffffffffffffffffffffffffffffff16815260200182815260200192505050602060405180830381600087803b15801561146057600080fd5b505af1158015611474573d6000803e3d6000fd5b505050506040513d602081101561148a57600080fd5b81019080805190602001909291905050506114a457600080fd5b505050565b60005a90506152088101905060008090505b600036905081101561152657600060f81b600036838181106114d957fe5b9050013560f81c60f81b7effffffffffffffffffffffffffffffffffffffffffffffffffffffffffffff191614611511576044611514565b60045b60ff16820191508060010190506114bb565b5090565b6004544303600354101561166e57600960003373ffffffffffffffffffffffffffffffffffffffff1673ffffffffffffffffffffffffffffffffffffffff168152602001908152602001600020546005819055506000600554118015611597575060008054905060055411155b6115a057600080fd5b6115e56000600160055403815481106115b557fe5b9060005260206000200160009054906101000a900473ffffffffffffffffffffffffffffffffffffffff1661136d565b60068190555060065460006001600554038154811061160057fe5b9060005260206000200160009054906101000a900473ffffffffffffffffffffffffffffffffffffffff1673ffffffffffffffffffffffffffffffffffffffff167fd3bed6b350c548f8ecd5aa592c13a6a67bff7ccf6aae87aa3743bc25d8b130e360405160405180910390a35b43600481905550565b600080805490501161168857600080fd5b60006006541161169757600080fd5b6000600160055403815481106116a957fe5b9060005260206000200160009054906101000a900473ffffffffffffffffffffffffffffffffffffffff1673ffffffffffffffffffffffffffffffffffffffff163373ffffffffffffffffffffffffffffffffffffffff161461170b57600080fd5b6001600654111561172c576001600660008282540392505081905550611814565b60016000805490506005548161173e57fe5b060160058190555061178b60006001600554038154811061175b57fe5b9060005260206000200160009054906101000a900473ffffffffffffffffffffffffffffffffffffffff1661136d565b6006819055506006546000600160055403815481106117a657fe5b9060005260206000200160009054906101000a900473ffffffffffffffffffffffffffffffffffffffff1673ffffffffffffffffffffffffffffffffffffffff167fd3bed6b350c548f8ecd5aa592c13a6a67bff7ccf6aae87aa3743bc25d8b130e360405160405180910390a35b565b8373ffffffffffffffffffffffffffffffffffffffff166323b872dd8484846040518463ffffffff1660e01b8152600401808473ffffffffffffffffffffffffffffffffffffffff1673ffffffffffffffffffffffffffffffffffffffff1681526020018373ffffffffffffffffffffffffffffffffffffffff1673ffffffffffffffffffffffffffffffffffffffff1681526020018281526020019350505050602060405180830381600087803b1580156118d157600080fd5b505af11580156118e5573d6000803e3d6000fd5b505050506040513d60208110156118fb57600080fd5b810190808051906020019092919050505061191557600080fd5b50505050565b815481835581811115611942578183600052602060002091820191016119419190611947565b5b505050565b61196991905b8082111561196557600081600090555060010161194d565b5090565b9056fea265627a7a72315820bb959fa211b75379a9521b22930301b143593424a379247cab2580d9920436c264736f6c63430005100032",
  "source": "pragma solidity ^0.5.0;\n\nimport 'openzeppelin-solidity/contracts/token/ERC20/SafeERC20.sol';\n\nimport './interface/ILighthouse.sol';\nimport './interface/IFactory.sol';\nimport './XRT.sol';\n\ncontract Lighthouse is ILighthouse {\n    using SafeERC20 for XRT;\n\n    IFactory public factory;\n    XRT      public xrt;\n\n    function setup(XRT _xrt, uint256 _minimalStake, uint256 _timeoutInBlocks) external returns (bool) {\n        require(factory == IFactory(0) && _minimalStake > 0 && _timeoutInBlocks > 0);\n\n        minimalStake    = _minimalStake;\n        timeoutInBlocks = _timeoutInBlocks;\n        factory         = IFactory(msg.sender);\n        xrt             = _xrt;\n\n        return true;\n    }\n\n    /**\n     * @dev Providers index, started from 1\n     */\n    mapping(address => uint256) public indexOf;\n\n    function refill(uint256 _value) external returns (bool) {\n        xrt.safeTransferFrom(msg.sender, address(this), _value);\n\n        if (stakes[msg.sender] == 0) {\n            require(_value >= minimalStake);\n            providers.push(msg.sender);\n            indexOf[msg.sender] = providers.length;\n            emit Online(msg.sender);\n        }\n\n        stakes[msg.sender] += _value;\n        return true;\n    }\n\n    function withdraw(uint256 _value) external returns (bool) {\n        require(stakes[msg.sender] >= _value);\n\n        stakes[msg.sender] -= _value;\n        xrt.safeTransfer(msg.sender, _value);\n\n        // Drop member with zero quota\n        if (quotaOf(msg.sender) == 0) {\n            uint256 balance = stakes[msg.sender];\n            stakes[msg.sender] = 0;\n            xrt.safeTransfer(msg.sender, balance);\n            \n            uint256 senderIndex = indexOf[msg.sender] - 1;\n            uint256 lastIndex = providers.length - 1;\n            if (senderIndex < lastIndex)\n                providers[senderIndex] = providers[lastIndex];\n\n            providers.length -= 1;\n            indexOf[msg.sender] = 0;\n\n            emit Offline(msg.sender);\n        }\n        return true;\n    }\n\n    function keepAliveTransaction() internal {\n        if (timeoutInBlocks < block.number - keepAliveBlock) {\n            // Set up the marker according to provider index\n            marker = indexOf[msg.sender];\n\n            // Thransaction sender should be a registered provider\n            require(marker > 0 && marker <= providers.length);\n\n            // Allocate new quota\n            quota = quotaOf(providers[marker - 1]);\n\n            // Current provider signal\n            emit Current(providers[marker - 1], quota);\n        }\n\n        // Store transaction sending block\n        keepAliveBlock = block.number;\n    }\n\n    function quotedTransaction() internal {\n        // Don't premit transactions without providers on board\n        require(providers.length > 0);\n\n        // Zero quota guard\n        // XXX: When quota for some reasons is zero, DoS will be preverted by keepalive transaction\n        require(quota > 0);\n\n        // Only provider with marker can to send transaction\n        require(msg.sender == providers[marker - 1]);\n\n        // Consume one quota for transaction sending\n        if (quota > 1) {\n            quota -= 1;\n        } else {\n            // Step over marker\n            marker = marker % providers.length + 1;\n\n            // Allocate new quota\n            quota = quotaOf(providers[marker - 1]);\n\n            // Current provider signal\n            emit Current(providers[marker - 1], quota);\n        }\n    }\n\n    function startGas() internal view returns (uint256 gas) {\n        // the total amount of gas the tx is DataFee + TxFee + ExecutionGas\n        // ExecutionGas\n        gas = gasleft();\n        // TxFee\n        gas += 21000;\n        // DataFee\n        for (uint256 i = 0; i < msg.data.length; ++i)\n            gas += msg.data[i] == 0 ? 4 : 68;\n    }\n\n    function createLiability(\n        bytes calldata _demand,\n        bytes calldata _offer\n    )\n        external\n        returns (bool)\n    {\n        // Gas with estimation error\n        uint256 gas = startGas() + 4887;\n\n        keepAliveTransaction();\n        quotedTransaction();\n\n        ILiability liability = factory.createLiability(_demand, _offer);\n        require(liability != ILiability(0));\n        require(factory.liabilityCreated(liability, gas - gasleft()));\n        return true;\n    }\n\n    function finalizeLiability(\n        address _liability,\n        bytes calldata _result,\n        bool _success,\n        bytes calldata _signature\n    )\n        external\n        returns (bool)\n    {\n        // Gas with estimation error\n        uint256 gas = startGas() + 22335;\n\n        keepAliveTransaction();\n        quotedTransaction();\n\n        ILiability liability = ILiability(_liability);\n        require(factory.gasConsumedOf(_liability) > 0);\n        require(liability.finalize(_result, _success, _signature));\n        require(factory.liabilityFinalized(liability, gas - gasleft()));\n        return true;\n    }\n}\n",
  "sourcePath": "/home/tubleronchik/work/neon_robonomics_contracts/robonomics_contracts/contracts/robonomics/Lighthouse.sol",
  "compiler": {
    "name": "solc",
    "version": "0.5.16+commit.9c3226ce.Emscripten.clang"
  },
  "schemaVersion": "3.4.8",
  "updatedAt": "2022-07-05T11:54:15.756Z",
  "networkType": "ethereum",
  "devdoc": {
    "methods": {
      "providersLength()": {
        "details": "Count of robonomics providers on this lighthouse"
      },
      "quotaOf(address)": {
        "details": "Get quota of provider"
      }
    }
  },
  "userdoc": {
    "methods": {}
  }
}