{
  "contractName": "PublicResolver",
  "abi": [
    {
      "inputs": [
        {
          "internalType": "contract AbstractENS",
          "name": "_ensAddr",
          "type": "address"
        }
      ],
      "payable": false,
      "stateMutability": "nonpayable",
      "type": "constructor"
    },
    {
      "constant": true,
      "inputs": [
        {
          "internalType": "bytes32",
          "name": "_node",
          "type": "bytes32"
        },
        {
          "internalType": "bytes32",
          "name": "_kind",
          "type": "bytes32"
        }
      ],
      "name": "has",
      "outputs": [
        {
          "internalType": "bool",
          "name": "",
          "type": "bool"
        }
      ],
      "payable": false,
      "stateMutability": "view",
      "type": "function"
    },
    {
      "constant": true,
      "inputs": [
        {
          "internalType": "bytes4",
          "name": "_interfaceID",
          "type": "bytes4"
        }
      ],
      "name": "supportsInterface",
      "outputs": [
        {
          "internalType": "bool",
          "name": "",
          "type": "bool"
        }
      ],
      "payable": false,
      "stateMutability": "pure",
      "type": "function"
    },
    {
      "constant": true,
      "inputs": [
        {
          "internalType": "bytes32",
          "name": "_node",
          "type": "bytes32"
        }
      ],
      "name": "addr",
      "outputs": [
        {
          "internalType": "address",
          "name": "ret",
          "type": "address"
        }
      ],
      "payable": false,
      "stateMutability": "view",
      "type": "function"
    },
    {
      "constant": false,
      "inputs": [
        {
          "internalType": "bytes32",
          "name": "_node",
          "type": "bytes32"
        },
        {
          "internalType": "address",
          "name": "_addr",
          "type": "address"
        }
      ],
      "name": "setAddr",
      "outputs": [],
      "payable": false,
      "stateMutability": "nonpayable",
      "type": "function"
    },
    {
      "constant": true,
      "inputs": [
        {
          "internalType": "bytes32",
          "name": "_node",
          "type": "bytes32"
        }
      ],
      "name": "content",
      "outputs": [
        {
          "internalType": "bytes32",
          "name": "ret",
          "type": "bytes32"
        }
      ],
      "payable": false,
      "stateMutability": "view",
      "type": "function"
    },
    {
      "constant": false,
      "inputs": [
        {
          "internalType": "bytes32",
          "name": "_node",
          "type": "bytes32"
        },
        {
          "internalType": "bytes32",
          "name": "_hash",
          "type": "bytes32"
        }
      ],
      "name": "setContent",
      "outputs": [],
      "payable": false,
      "stateMutability": "nonpayable",
      "type": "function"
    }
  ],
  "bytecode": "0x608060405234801561001057600080fd5b506040516106fa3803806106fa8339818101604052602081101561003357600080fd5b8101908080519060200190929190505050806000806101000a81548173ffffffffffffffffffffffffffffffffffffffff021916908373ffffffffffffffffffffffffffffffffffffffff16021790555050610666806100946000396000f3fe608060405234801561001057600080fd5b50600436106100625760003560e01c806301ffc9a7146100675780632dff6941146100cc5780633b3b57de1461010e57806341b9dc2b1461017c578063c3d014d6146101cc578063d5fa2b0014610204575b600080fd5b6100b26004803603602081101561007d57600080fd5b8101908080357bffffffffffffffffffffffffffffffffffffffffffffffffffffffff19169060200190929190505050610252565b604051808215151515815260200191505060405180910390f35b6100f8600480360360208110156100e257600080fd5b81019080803590602001909291905050506102b4565b6040518082815260200191505060405180910390f35b61013a6004803603602081101561012457600080fd5b81019080803590602001909291905050506102d1565b604051808273ffffffffffffffffffffffffffffffffffffffff1673ffffffffffffffffffffffffffffffffffffffff16815260200191505060405180910390f35b6101b26004803603604081101561019257600080fd5b81019080803590602001909291908035906020019092919050505061030e565b604051808215151515815260200191505060405180910390f35b610202600480360360408110156101e257600080fd5b8101908080359060200190929190803590602001909291905050506103f3565b005b6102506004803603604081101561021a57600080fd5b8101908080359060200190929190803573ffffffffffffffffffffffffffffffffffffffff1690602001909291905050506104f5565b005b6000633b3b57de60e01b827bffffffffffffffffffffffffffffffffffffffffffffffffffffffff191614806102ad575063d8389dc560e01b827bffffffffffffffffffffffffffffffffffffffffffffffffffffffff1916145b9050919050565b600060026000838152602001908152602001600020549050919050565b60006001600083815260200190815260200160002060009054906101000a900473ffffffffffffffffffffffffffffffffffffffff169050919050565b60007f61646472000000000000000000000000000000000000000000000000000000008214801561039f5750600073ffffffffffffffffffffffffffffffffffffffff166001600085815260200190815260200160002060009054906101000a900473ffffffffffffffffffffffffffffffffffffffff1673ffffffffffffffffffffffffffffffffffffffff1614155b806103eb57507f6861736800000000000000000000000000000000000000000000000000000000821480156103ea57506000801b600260008581526020019081526020016000205414155b5b905092915050565b813373ffffffffffffffffffffffffffffffffffffffff166000809054906101000a900473ffffffffffffffffffffffffffffffffffffffff1673ffffffffffffffffffffffffffffffffffffffff166302571be3836040518263ffffffff1660e01b81526004018082815260200191505060206040518083038186803b15801561047d57600080fd5b505afa158015610491573d6000803e3d6000fd5b505050506040513d60208110156104a757600080fd5b810190808051906020019092919050505073ffffffffffffffffffffffffffffffffffffffff16146104d857600080fd5b816002600085815260200190815260200160002081905550505050565b813373ffffffffffffffffffffffffffffffffffffffff166000809054906101000a900473ffffffffffffffffffffffffffffffffffffffff1673ffffffffffffffffffffffffffffffffffffffff166302571be3836040518263ffffffff1660e01b81526004018082815260200191505060206040518083038186803b15801561057f57600080fd5b505afa158015610593573d6000803e3d6000fd5b505050506040513d60208110156105a957600080fd5b810190808051906020019092919050505073ffffffffffffffffffffffffffffffffffffffff16146105da57600080fd5b816001600085815260200190815260200160002060006101000a81548173ffffffffffffffffffffffffffffffffffffffff021916908373ffffffffffffffffffffffffffffffffffffffff16021790555050505056fea265627a7a723158207b748213ac6aeb1af6f72cb1156ccb21ec007f70719f846e64d3cb5637defbd464736f6c63430005100032",
  "source": "pragma solidity ^0.5.0;\n\nimport './AbstractENS.sol';\n\n/**\n * A simple resolver anyone can use; only allows the owner of a node to set its\n * address.\n */\ncontract PublicResolver {\n    AbstractENS ens;\n    mapping(bytes32=>address) addresses;\n    mapping(bytes32=>bytes32) hashes;\n\n    modifier only_owner(bytes32 _node) {\n        require(ens.owner(_node) == msg.sender);\n        _;\n    }\n\n    /**\n     * Constructor.\n     * @param _ensAddr The ENS registrar contract.\n     */\n    constructor(AbstractENS _ensAddr) public {\n        ens = _ensAddr;\n    }\n\n    /**\n     * Returns true if the specified node has the specified record type.\n     * @param _node The ENS node to query.\n     * @param _kind The record type name, as specified in EIP137.\n     * @return True if this resolver has a record of the provided type on the\n     *         provided node.\n     */\n    function has(bytes32 _node, bytes32 _kind) public view returns (bool) {\n        return (_kind == \"addr\" && addresses[_node] != address(0)) || (_kind == \"hash\" && hashes[_node] != 0);\n    }\n\n    /**\n     * Returns true if the resolver implements the interface specified by the provided hash.\n     * @param _interfaceID The ID of the interface to check for.\n     * @return True if the contract implements the requested interface.\n     */\n    function supportsInterface(bytes4 _interfaceID) public pure returns (bool) {\n        return _interfaceID == 0x3b3b57de || _interfaceID == 0xd8389dc5;\n    }\n\n    /**\n     * Returns the address associated with an ENS node.\n     * @param _node The ENS node to query.\n     * @return The associated address.\n     */\n    function addr(bytes32 _node) public view returns (address ret) {\n        ret = addresses[_node];\n    }\n\n    /**\n     * Sets the address associated with an ENS node.\n     * May only be called by the owner of that node in the ENS registry.\n     * @param _node The node to update.\n     * @param _addr The address to set.\n     */\n    function setAddr(bytes32 _node, address _addr) public only_owner(_node) {\n        addresses[_node] = _addr;\n    }\n\n    /**\n     * Returns the content hash associated with an ENS node.\n     * Note that this resource type is not standardized, and will likely change\n     * in future to a resource type based on multihash.\n     * @param _node The ENS node to query.\n     * @return The associated content hash.\n     */\n    function content(bytes32 _node) public view returns (bytes32 ret) {\n        ret = hashes[_node];\n    }\n\n    /**\n     * Sets the content hash associated with an ENS node.\n     * May only be called by the owner of that node in the ENS registry.\n     * Note that this resource type is not standardized, and will likely change\n     * in future to a resource type based on multihash.\n     * @param _node The node to update.\n     * @param _hash The content hash to set\n     */\n    function setContent(bytes32 _node, bytes32 _hash) public only_owner(_node) {\n        hashes[_node] = _hash;\n    }\n}\n",
  "sourcePath": "/home/tubleronchik/work/neon_robonomics_contracts/robonomics_contracts/contracts/ens/PublicResolver.sol",
  "compiler": {
    "name": "solc",
    "version": "0.5.16+commit.9c3226ce.Emscripten.clang"
  },
  "schemaVersion": "3.4.8",
  "updatedAt": "2022-07-05T11:54:12.318Z",
  "networkType": "ethereum",
  "devdoc": {
    "methods": {
      "addr(bytes32)": {
        "params": {
          "_node": "The ENS node to query."
        },
        "return": "The associated address."
      },
      "constructor": {
        "params": {
          "_ensAddr": "The ENS registrar contract."
        }
      },
      "content(bytes32)": {
        "params": {
          "_node": "The ENS node to query."
        },
        "return": "The associated content hash."
      },
      "has(bytes32,bytes32)": {
        "params": {
          "_kind": "The record type name, as specified in EIP137.",
          "_node": "The ENS node to query."
        },
        "return": "True if this resolver has a record of the provided type on the        provided node."
      },
      "setAddr(bytes32,address)": {
        "params": {
          "_addr": "The address to set.",
          "_node": "The node to update."
        }
      },
      "setContent(bytes32,bytes32)": {
        "params": {
          "_hash": "The content hash to set",
          "_node": "The node to update."
        }
      },
      "supportsInterface(bytes4)": {
        "params": {
          "_interfaceID": "The ID of the interface to check for."
        },
        "return": "True if the contract implements the requested interface."
      }
    }
  },
  "userdoc": {
    "methods": {
      "addr(bytes32)": {
        "notice": "Returns the address associated with an ENS node."
      },
      "constructor": "Constructor.",
      "content(bytes32)": {
        "notice": "Returns the content hash associated with an ENS node. Note that this resource type is not standardized, and will likely change in future to a resource type based on multihash."
      },
      "has(bytes32,bytes32)": {
        "notice": "Returns true if the specified node has the specified record type."
      },
      "setAddr(bytes32,address)": {
        "notice": "Sets the address associated with an ENS node. May only be called by the owner of that node in the ENS registry."
      },
      "setContent(bytes32,bytes32)": {
        "notice": "Sets the content hash associated with an ENS node. May only be called by the owner of that node in the ENS registry. Note that this resource type is not standardized, and will likely change in future to a resource type based on multihash."
      },
      "supportsInterface(bytes4)": {
        "notice": "Returns true if the resolver implements the interface specified by the provided hash."
      }
    },
    "notice": "A simple resolver anyone can use; only allows the owner of a node to set its address."
  }
}