{
  "contractName": "SingletonHash",
  "abi": [
    {
      "anonymous": false,
      "inputs": [
        {
          "indexed": true,
          "internalType": "bytes32",
          "name": "hash",
          "type": "bytes32"
        }
      ],
      "name": "HashConsumed",
      "type": "event"
    },
    {
      "constant": true,
      "inputs": [
        {
          "internalType": "bytes32",
          "name": "",
          "type": "bytes32"
        }
      ],
      "name": "isHashConsumed",
      "outputs": [
        {
          "internalType": "bool",
          "name": "",
          "type": "bool"
        }
      ],
      "payable": false,
      "stateMutability": "view",
      "type": "function"
    }
  ],
  "bytecode": "0x6080604052348015600f57600080fd5b5060c58061001e6000396000f3fe6080604052348015600f57600080fd5b506004361060285760003560e01c8063fa3260de14602d575b600080fd5b605660048036036020811015604157600080fd5b81019080803590602001909291905050506070565b604051808215151515815260200191505060405180910390f35b60006020528060005260406000206000915054906101000a900460ff168156fea265627a7a7231582079b451c0b1dd2a1075f23bc09ccf288c8c0ac8e3043fdfc02df03bb37d27ec8864736f6c63430005100032",
  "source": "pragma solidity ^0.5.0;\n\ncontract SingletonHash {\n    event HashConsumed(bytes32 indexed hash);\n\n    /**\n     * @dev Used hash accounting\n     */\n    mapping(bytes32 => bool) public isHashConsumed;\n\n    /**\n     * @dev Parameter can be used only once\n     * @param _hash Single usage hash\n     */\n    function singletonHash(bytes32 _hash) internal {\n        require(!isHashConsumed[_hash]);\n        isHashConsumed[_hash] = true;\n        emit HashConsumed(_hash);\n    }\n}\n",
  "sourcePath": "/home/tubleronchik/work/neon_robonomics_contracts/robonomics_contracts/contracts/misc/SingletonHash.sol",
  "compiler": {
    "name": "solc",
    "version": "0.5.16+commit.9c3226ce.Emscripten.clang"
  },
  "schemaVersion": "3.4.8",
  "updatedAt": "2022-07-05T11:40:14.249Z",
  "devdoc": {
    "methods": {}
  },
  "userdoc": {
    "methods": {}
  }
}